:100000000C94C3000C9491170C946A170C9410185C
:100010000C9410180C9410180C94EB000C94EB003A
:100020000C94EB000C94EB000C94EB000C9439193D
:100030000C94EB000C94EB000C94EB000C94EB0094
:100040000C9420170C94EB000C94DE170C94B8174A
:100050000C94EB000C94EB000C94EB000C94EB0074
:100060000C941A180C94EB00556E6B6E6F776E2023
:1000700070696E206D6F6465004E6F7420656E6FE1
:1000800075676820627974657320696E20535953CF
:1000900054454D5F5641524941424C45206D657370
:1000A00073616765004932433A20546F6F206D6178
:1000B0006E7920627974657320726563656976650F
:1000C0006400746F6F206D616E792071756572695F
:1000D00065730031302D62697420616464726573E8
:1000E00073696E67206E6F7420737570706F7274B1
:1000F00065640000000100080040000001000405E4
:100100000D44697363617264696E6720696E70750E
:1001100074206D6573736167652C206F7574206F33
:100120006620627566666572000000000024002784
:10013000002A0000000000250028002B000000001D
:10014000002300260029000404040404040404021B
:100150000202020202030303030303010204081064
:100160002040800102040810200102040810200031
:100170000000080002010000030407000000000066
:10018000000000006D1A11241FBECFEFD8E0DEBFC3
:10019000CDBF12E0A0E0B1E0E0E9F3E402C00590D9
:1001A0000D92AA35B107D9F725E0AAE5B2E001C062
:1001B0001D92AB32B207E1F710E0C3ECD0E004C00F
:1001C0002197FE010E948D20C23CD107C9F70E94F1
:1001D000CD1B0C94C6210C940000CF93DF93C2EE8C
:1001E000D3E088819981DC01ED91FC910190F0814F
:1001F000E02D67EF099588819981DC01ED91FC91F3
:100200000680F781E02DDF91CF910994A091E20360
:10021000B091E303ED91FC9111970190F081E02DF5
:10022000682FCD0109948091E2039091E303DC01F2
:10023000ED91FC910190F081E02D60EF09940F9316
:100240001F93CF93DF93EC0102EE13E0D8018D9161
:100250009C916C2F6F77DC01ED91FC910190F08106
:10026000E02D0995F80180819181CC0FCD2FCC1F15
:10027000DD0B6C2F6F77DC01ED91FC910190F0812B
:10028000E02DDF91CF911F910F910994CF93DF93D0
:10029000C2EED3E088819981DC01ED91FC9101905F
:1002A000F081E02D69EF099588819981DC01ED915C
:1002B000FC910190F081E02D62E00995888199819F
:1002C000DC01ED91FC910190F081E02D67E0DF9180
:1002D000CF910994E091A904E53158F421E02E0F63
:1002E0002093A904F0E0EE0FFF1FE158FB4F91832C
:1002F000808308950F931F93CF93C82F8B01803174
:1003000098F48091E2039091E3036C2F606EDC011E
:10031000ED91FC910190F081E02D0995C801CF91FC
:100320001F910F910C941F010E9413018091E20311
:100330009091E303DC01ED91FC910190F081E02DBF
:100340006FE609958091E2039091E303DC01ED9162
:10035000FC910190F081E02D6C2F0995C8010E945D
:100360001F01CF911F910F910C94ED0081E08093BC
:100370005A041092E8031092E9031092EA03EBEE9C
:10038000F3E0119284E0EB32F807D9F710922B04D6
:1003900010922D0410922C04E0916604F0916704F1
:1003A000309709F0099510925A040895CF93DF937E
:1003B00000D01F92CDB7DEB78F7080698983862FFA
:1003C0008F778A83660F672F661F770B6B83809109
:1003D000E2039091E303DC01ED91FC910280F38153
:1003E000E02D43E050E0BE016F5F7F4F09950F9015
:1003F0000F900F90DF91CF910895833081F028F412
:10040000813099F08230A9F008958730A9F08830C2
:10041000C9F08430B1F4809180008F7D03C0809159
:1004200080008F7780938000089584B58F7784BD96
:10043000089584B58F7DFBCF8091B0008F77809336
:10044000B00008958091B0008F7DF9CFCF93DF93F6
:10045000282F30E0F901E159FE4F8491F901E55A66
:10046000FE4FD491F901E95BFE4FC491CC23A1F07A
:1004700081110E94FD01EC2FF0E0EE0FFF1FE35C05
:10048000FE4FA591B491EC91ED2381E090E009F449
:1004900080E0DF91CF91089580E090E0FACF1F9344
:1004A000CF93DF93282F30E0F901E159FE4F84917B
:1004B000F901E55AFE4FD491F901E95BFE4FC49171
:1004C000CC23A9F0162F81110E94FD01EC2FF0E042
:1004D000EE0FFF1FED5CFE4FA591B4918FB7F8941E
:1004E000EC91111108C0D095DE23DC938FBFDF9112
:1004F000CF911F910895DE2BF8CFCF93DF9390E03B
:10050000FC01E55AFE4F2491895B9E4FFC018491CA
:100510008823C9F090E0880F991FFC01E75DFE4F2A
:10052000A591B491FC01ED5CFE4FC591D491611190
:100530000DC09FB7F8948C91209582238C9388816D
:10054000282328839FBFDF91CF910895623051F413
:100550009FB7F8943C91822F809583238C93E881F8
:100560002E2BEFCF8FB7F894EC912E2B2C938FBFBF
:10057000EACF8E3008F08E508770806480937C00C4
:1005800080917A00806480937A0080917A0086FD61
:10059000FCCF809178009091790008953FB7F8944E
:1005A0008091D5029091D602A091D702B091D80245
:1005B00026B5A89B05C02F3F19F00196A11DB11DBE
:1005C0003FBFBA2FA92F982F8827BC01CD01620FFA
:1005D000711D811D911D42E0660F771F881F991FB5
:1005E0004A95D1F708958F929F92AF92BF92CF9282
:1005F000DF92EF92FF926B017C010E94CE024B01D1
:100600005C01C114D104E104F104B9F00E94CE02EE
:10061000681979098A099B09683E7340810591052B
:1006200080F321E0C21AD108E108F10888EE880EB3
:1006300083E0981EA11CB11CE4CFFF90EF90DF90E7
:10064000CF90BF90AF909F908F9008952FB7F89460
:100650006091D1027091D2028091D3029091D40224
:100660002FBF08950895AF92BF92CF92DF92EF927D
:10067000FF920F931F93CF93DF936C017B018B014C
:10068000040F151FEB015E01AE18BF08C017D1079C
:1006900059F06991D601ED91FC910190F081E02D26
:1006A000C6010995892B79F7C501DF91CF911F917B
:1006B0000F91FF90EF90DF90CF90BF90AF90089593
:1006C000FC01538D448D252F30E0842F90E0821B58
:1006D000930B541710F0CF96089501970895FC01DD
:1006E000918D828D981761F0A28DAE0FBF2FB11D35
:1006F0005D968C91928D9F5F9F73928F90E008958D
:100700008FEF9FEF0895FC01918D828D981731F046
:10071000828DE80FF11D858D90E008958FEF9FEF9A
:100720000895FC01918D228D892F90E0805C9F4F70
:10073000821B91098F739927089589E293E00E94A3
:10074000910321E0892B09F420E0822F089580E0B5
:1007500090E0892B29F00E949D0381110C940000E8
:100760000895FC01A48DA80FB92FB11DA35ABF4F46
:100770002C91848D90E001968F739927848FA689A0
:10078000B7892C93A089B1898C91837080648C93F4
:10079000938D848D981306C00288F389E02D8081A3
:1007A0008F7D80830895EF92FF920F931F93CF93D5
:1007B000DF93EC0181E0888F9B8D8C8D98131AC09C
:1007C000E889F989808185FF15C09FB7F894EE8983
:1007D000FF896083E889F9898081837080648083E0
:1007E0009FBF81E090E0DF91CF911F910F91FF902B
:1007F000EF900895F62E0B8D10E00F5F1F4F0F73D3
:100800001127E02E8C8D8E110CC00FB607FCFACF8D
:10081000E889F989808185FFF5CFCE010E94B10377
:10082000F1CFEB8DEC0FFD2FF11DE35AFF4FF0825E
:100830009FB7F8940B8FEA89FB8980818062CFCFC4
:10084000CF93DF93EC01888D8823B9F0AA89BB8907
:10085000E889F9898C9185FD03C0808186FD0DC0F2
:100860000FB607FCF7CF8C9185FFF2CF808185FF13
:10087000EDCFCE010E94B103E9CFDF91CF91089572
:100880002091A902260F3327331F21323105ECF4C2
:100890002091FF02FC0190E080E0243069F082E0CA
:1008A0000895A091A9022191AC0149575D4FA40F71
:1008B000B52FB11D2C930196861798F38091A9024C
:1008C000680F6093A90280E0089581E00895ECEB41
:1008D000F0E080818A7B808360E082E10E944F02A9
:1008E00060E083E10C944F021092FF0281E080935C
:1008F000FE021092D90261E082E10E944F0261E0A3
:1009000083E10E944F02E9EBF0E080818E7F8083DB
:1009100080818D7F808388E48093B80085E4809314
:10092000BC000895CF93DF9391E0909386028823D3
:1009300061F0C091B800D091BA000E9467040E9493
:100940007404D093BA00C093B800DF91CF9108959A
:100950008F929F92AF92BF92CF92DF92EF92FF92CF
:100960000F931F93CF93DF93D0912803D13208F0D8
:10097000D7C0182FC09127030E94CE026B017C01C3
:100980008091FF0281116BC082E08093FF0210937F
:10099000FE028FEF8093FD021092FC02D093FB02C7
:1009A000A7E0B3E0EBEDF2E080E0D81391C0109245
:1009B000DA028091DA02CC0FC82BC093DA02809160
:1009C000D902813009F088C01092D9020E94CE026B
:1009D0006B017C018091DA028093BB00809101035E
:1009E00090910203A0910303B0910403892B8A2BF9
:1009F0008B2BA1F00E94CE02009101031091020303
:100A000020910303309104036C197D098E099F091D
:100A1000061717072807390708F442C08091BC0061
:100A200083FDD8CF85EC8093BC000E94CE026B0181
:100A30007C018091FF02823009F450C08091FD0258
:100A40008F3F09F46FC08091FD02803209F46CC0C1
:100A50008091FD02803309F469C084E026C0809152
:100A6000010390910203A0910303B0910403892B29
:100A70008A2B8B2B09F484CF0E94CE028090010335
:100A800090900203A0900303B09004036C197D09B9
:100A90008E099F0986169706A806B90608F070CF3A
:100AA000809100030E94920485E010920603109248
:100AB000280310920503DF91CF911F910F91FF90B2
:100AC000EF90DF90CF90BF90AF909F908F90089560
:100AD0009D9191938F5F69CF85EEA5CF80910103A2
:100AE00090910203A0910303B0910403892B8A2BF8
:100AF0008B2B09F49ECF0E94CE020091010310912E
:100B0000020320910303309104036C197D098E09BF
:100B10009F09061717072807390708F08ACFC0CFA3
:100B200081E0C3CF80E0C1CF82E0BFCF83E0BDCF03
:100B3000089508950895E091850280918402E81750
:100B400030F4F0E0EC59FD4F808190E008958FEF94
:100B50009FEF089590918502809184022FEF3FEFDF
:100B6000981748F4E92FF0E0EC59FD4F208130E070
:100B70009F5F90938502C9010895809184029091AE
:100B80008502891B990B0895CF92DF92EF92FF9215
:100B90000F931F93CF93DF937C01CB018A012091A8
:100BA0000503222389F0EB016B01C40ED51ECC1581
:100BB000DD0569F06991D701ED91FC910190F0811B
:100BC000E02DC7010995F3CF642F0E944004C801AE
:100BD000DF91CF911F910F91FF90EF90DF90CF9019
:100BE0000895CF93DF931F92CDB7DEB7698320912D
:100BF00005032223F9F020912803203258F021E048
:100C000030E0FC013383228390E080E00F90DF919D
:100C1000CF91089580910603E82FF0E0E95FFC4F43
:100C2000998190838F5F809306038093280381E0EE
:100C300090E0ECCF61E0CE0101960E944004F7CF36
:100C400090E080E008958CE30895CF93DF93FC015A
:100C5000228133812230310569F0EC01678D858D69
:100C60000E944F0260E08C8D0E944F0282E090E073
:100C70009B838A83DF91CF91089581E008952FB7F8
:100C8000F89491E0662339F092E0613021F082E03F
:100C90008093610290E080916002892B80936002D2
:100CA00080916102811103C081E0809361022FBFB6
:100CB000089580916102882361F09FB7F894209194
:100CC000610280915F02213019F48DBB9FBF0895AE
:100CD0008FBF0895FC0130852185809161028823B2
:100CE00081F09FB7F89480916102813069F48DB3EF
:100CF00080935F024DB380916002809584238DBB09
:100D00009FBF3CBD2DBD089590935F02FACF9FB762
:100D1000F89480915E02882319F0815080935E02DE
:100D200080915E02811105C08CB58F7B8CBD1092C5
:100D300061029FBF08956EBD00000DB407FEFDCF98
:100D40008EB50895FC01738362830895FC01778357
:100D500066830895FC01758364830895089508955A
:100D6000FC01848995890895FC01828993890895FD
:100D7000FC0180899189089580E00895FC017383C6
:100D800062830895FC01828193810895FC01868528
:100D900097850895FC0181850895FC01808508955B
:100DA000FC0187810895FC01868108954095FC012E
:100DB00025854223642B65870895FC016487089587
:100DC000FC0163870895FC0162870895FC01648338
:100DD0000895FC01658308958F929F92AF92BF9210
:100DE000CF92DF92EF92FF92CF93DF93EC016B01F2
:100DF0000E9426034B015C01F12CE12C0E9426038A
:100E0000681979098A099B096C157D058E059F056E
:100E100080F48A819B81039789F381E0DF91CF91F0
:100E2000FF90EF90DF90CF90BF90AF909F908F900A
:100E3000089580E0F3CFFC01228133812330310516
:100E4000D1F381E008954F925F926F927F928F92DB
:100E50009F92AF92BF92CF92DF92EF92FF920F9349
:100E60001F93CF93DF93EC016B018A010E9426034D
:100E70002B013C01F12CE12C4801B12CA12C0E944A
:100E8000260364197509860997096C157D058E0579
:100E90009F0588F4E881F9810680F781E02DCE0175
:100EA0000995811109C00115110549F3C501B40166
:100EB0000E94F302E4CF80E0DF91CF911F910F9168
:100EC000FF90EF90DF90CF90BF90AF909F908F906A
:100ED0007F906F905F904F900895CF92DF92EF9246
:100EE000FF920F931F93CF93DF93EC018B016B0164
:100EF000F12CE12CE881F9810680F781E02DCE010B
:100F00000995811108C001151105A1F3C701B601AA
:100F10000E94F302EFCFDF91CF911F910F91FF90CD
:100F2000EF90DF90CF900895862720E1829FB00157
:100F300011248627482F50E0292F382FCA0164E05A
:100F4000959587956A95E1F728273927CA0173E0B7
:100F5000880F991F7A95E1F78227932708956F925A
:100F60007F928F929F92AF92BF92CF92DF92EF9239
:100F7000FF920F931F93CF93DF934D3388F0712C23
:100F8000872DDF91CF911F910F91FF90EF90DF9010
:100F9000CF90BF90AF909F908F907F906F9008956B
:100FA000042F5B01EC01E881F9810088F189E02DD3
:100FB0000995E881F9810688F789E02DCE01099528
:100FC000782E8823E1F27E0129E7E20EF11C17E07A
:100FD000100F612F8FEF9FEF0E949407E12FF0E039
:100FE00064E0F595E7956A95E1F7E059FE4F2081B9
:100FF000F70120831F70E12FF0E0E059FE4F2081C0
:10100000FE01E658FF4F20831A85612F0E94940746
:10101000E12FF0E074E0F595E7957A95E1F7E05976
:10102000FE4F2081FE01E558FF4F20831F70E12F06
:10103000F0E0E059FE4F2081FE01E458FF4F20838D
:101040001B85612F0E949407E12FF0E0A4E0F59545
:10105000E795AA95E1F7E059FE4F2081FE01E3589C
:10106000FF4F20831F70E12FF0E0E059FE4F2081F9
:10107000FE01E258FF4F20831C85612F0E949407D8
:10108000E12FF0E0B4E0F595E795BA95E1F7E05986
:10109000FE4F2081FE01E158FF4F20831F70E12F9A
:1010A000F0E0E059FE4F2081FE01E058FF4F208321
:1010B0001D85612F0E949407E12FF0E024E0F59553
:1010C000E7952A95E1F7E059FE4F2081FE01EF57A1
:1010D000FF4F20831F70E12FF0E0E059FE4F208189
:1010E000FE01EE57FF4F20836501470110E0A00E7F
:1010F000B11EF2E08F0E911CCA14DB04E9F0F60178
:1011000061906F01662D0E949407E62DF0E054E097
:10111000F595E7955A95E1F7E059FE4F2081F401E6
:101120002087F6013197E081EF70F0E0E059FE4F43
:101130002081F4012187DDCF98012B5F3F4F220FE3
:10114000331F80959095D701A20FB31FFC0154E087
:10115000F695E7955A95E1F7EF70FF27E059FE4FB6
:1011600030813C93F801EE0FFF1FBF016E0D7F1D14
:10117000AC014F70552740595E4FFA013081FB0199
:1011800033870A5F1F4F000F111F0E0D1F1DFC013B
:10119000EF2FFF27E295EF70E059FE4F3081F80105
:1011A0003083E92FFF27EF70FF27E059FE4F808142
:1011B00013968C93FE01E150FF4F245F20838A81B8
:1011C0009B81039709F4DCCEE159F1091082319635
:1011D0001082319610826F8D81E068278D8D0E947C
:1011E0004F0283E090E09B838A83CACEEF92FF9206
:1011F0001F93CF93DF93FC0122813381233031058C
:1012000009F452C0EC0182819381049761F0678DEB
:10121000858D0E944F0260E08C8D0E944F0284E019
:1012200090E09B838A8388A18823E9F010E08FEF08
:101230009FEF7E01FDE6EF0EF11CF70120811217F2
:1012400040F4FE01E10FF11D61A50E9494071F5FAC
:10125000F4CF883B904F71F0888999890196998BDA
:10126000888B19A218A289A1DF91CF911F91FF90BD
:10127000EF9008958AA58E838BA58F838CA5888790
:101280008DA589878D81811107C09E818C819817DA
:1012900019F08E818F3F31F78A899B8901969B8B4C
:1012A0008A8B81E089A3DECF80E0DECF0895FC0148
:1012B000E65BFF4F2081222331F01082855B9F4F38
:1012C0002FEFFC01208308956251623030F486E0F4
:1012D0000E94060181E00C94060108959C018EEEA7
:1012E000860F8230B0F446305105A9F0D901A65BD3
:1012F000BF4F8C91882371F0E62FF0E0E25DFB4F49
:101300008081863031F41C92255B3F4F8FEFF901CD
:10131000808380E0089581E00895CF93DF93EC010E
:101320000E9426036E837F838887998783E190E0FC
:101330009B878A87DF91CF9108956A37C1F4423045
:10134000B0F0F9014181F0E84F9FA0011124F901AB
:101350002081240F352F311D2115310529F0FC0185
:101360003387228781E0089521E030E0F8CF80E0E4
:10137000089580E0089508950895CF92DF92EF9246
:10138000FF92F701D6012115310571F481E090E05B
:101390008D939C93DA018D939C9311821082FF9020
:1013A000EF90DF90CF9008952150310980E02230F6
:1013B0003105A8F780E490E08D939C9381E090E064
:1013C000E9CF0F931F93CF93DF938C01D62FC0E00B
:1013D000D8019C968C91C81798F4EC2FF0E03196C8
:1013E000EE0FFF1FE00FF11F80819181DC01ED9175
:1013F000FC910084F185E02D6D2F0995CF5FE8CF3A
:10140000DF91CF911F910F9108950F931F93CF9369
:101410008C01C0E0D8019C968C91C81790F4EC2FF9
:10142000F0E03196EE0FFF1FE00FF11F80819181F8
:10143000DC01ED91FC910680F781E02D0995CF5FED
:10144000E9CFCF911F910F9108958DE794E00C940F
:10145000050ADF92EF92FF920F931F93CF93DF93D2
:10146000EC01D62E8A01F12CE12C8CA5F816A8F4FB
:10147000EF2DF0E03196EE0FFF1FEC0FFD1F808186
:101480009181DC01ED91FC910280F381E02DA801B6
:101490006D2D0995E82AF394E8CF8E2DDF91CF9139
:1014A0001F910F91FF90EF90DF9008950895625083
:1014B000623130F481E00E94060181E00C94060163
:1014C0000895CF938EEF860F8231B0F441305105ED
:1014D00099F4E62FF0E0E25DFB4F80818F3761F0F9
:1014E000C62F60E08C2F0E944F0261E08C2F0E947B
:1014F0007D0281E0CF91089580E0FCCF80E00895E7
:101500001F93CF93DF939EEF980F923180F4C82FF3
:10151000D0E0CE51DC4FFE01E45BFF4F9081913073
:1015200031F4162F0E944F02CE59DF4F1883DF91FE
:10153000CF911F910895AF92BF92CF92DF92EF9219
:10154000FF920F931F93CF93DF93833008F04BC02C
:1015500091E0980F990F990F990FB92E973110F0CC
:1015600026E1B22EC62FE82E9850092F10E0D0E0C9
:10157000FF24F394802F0B1558F59EEF900F9231B6
:10158000C8F4A8014E515C4FFA01E45BFF4F208183
:10159000223080F49F2D9C23AA24A394911101C092
:1015A000A12CBA016E597F4F6B01213039F4DF292C
:1015B000F601A082FF0C0F5F1F4FDCCF9923C1F310
:1015C000FB0190819130A1F362E00E947D02F0CF97
:1015D000E11014C0F8948BB1682F6C276C7F6D23D9
:1015E00068276BB97894DF91CF911F910F91FF908D
:1015F000EF90DF90CF90BF90AF900895F1E0EF12A1
:101600001AC0CD23F89495B18D2F8F7380958923BF
:101610009C2F9F73892B85B988B16D2F6295669534
:101620006695637060956823C295C695C695C3702C
:10163000C62BC8B9D7CF6D2F6F70F89498B1862F8D
:10164000880F880F809589236C23660F660F682B9F
:1016500068B9C8CF0895FC011282108615821382E2
:1016600011861682148212861782089562506231A2
:1016700060F480E00E94060181E00E9406018BE098
:101680000E94060181E00C9406010895CF932EEF8D
:10169000260F223188F5E62FE695E695E695E80FC8
:1016A000F92FF11D8085962F977021E030E001C061
:1016B000220F9A95EAF74115510519F04B30510563
:1016C000B9F4C62F282B2087452B31F460E08C2FEE
:1016D0000E947D0281E00AC062E08C2F0E947D02A0
:1016E000EC2FF0E0EC5BFB4F81E08083CF9108951D
:1016F000209528232087EECF80E0F8CF1F93CF934B
:10170000DF936623E1F1EC018A81882369F019B146
:101710001C7F888518238D81181731F0612F70E0A8
:1017200080E00E94D6011D838B81882399F0298552
:1017300013B186B11F7330E4839FC0011124182BAD
:1017400012238E81181731F0612F70E081E00E9422
:10175000D6011E838C81882391F086B190E0959507
:101760008795959587958F701A8518238F811817FF
:1017700031F0612F70E082E00E94D6011F83DF917B
:10178000CF911F9108951F93CF93DF938330B0F4CF
:10179000C0916F04D0917004C80FD11D6A83672B6C
:1017A00069F0488581110EC029B12C7F2423142FA4
:1017B0001223612F70E00E94D6011D83DF91CF912B
:1017C0001F910895813049F423B166B12F7390E4DD
:1017D000699FB0011124262BE9CF96B1292F30E063
:1017E00035952795359527952F70E0CFEF92FF928D
:1017F0000F931F93CF937C01C2EF10E000E0C8303D
:10180000C0F4F801E25DFB4F8081823091F4F70172
:10181000828193810C2E02C0959587950A94E2F7F8
:1018200080FF07C0802F0E94B902BC018C2F0E944C
:101830007A010F5F1F4FCF5FC83009F7CF911F911B
:101840000F91FF90EF90089561110C94F60B08959D
:101850000895FC011382128208956E50683030F4AE
:1018600082E00E9406018AE00C9406010895CF935D
:10187000DC016830B0F412968D919C911397E1E0F1
:10188000F0E0062E02C0EE0FFF1F0A94E2F74111AE
:101890000AC0E095F095E823F9231396FC93EE93A4
:1018A0001297CF910895E82BF92B1396FC93EE93A2
:1018B000129780915A048111F4CF822FC62F0E9473
:1018C000B902BC018C2FCF910C947A01CF93DF9396
:1018D000FC016936B9F480EF0E9406018AE60E9495
:1018E0000601C2EF8C2FC83008F08FE70E94060176
:1018F000CF5FC830B9F787EF0E94060181E0DF9122
:10190000CF910895643601F54230F0F0D9016C9121
:10191000A62FB0E050E040E0942FEA012E97AC17DC
:10192000BD0731F04F5F5F4F46315105A9F790E099
:1019300041E0D90111968C91813009F040E0292FC6
:10194000CF010E94370CDACF80E0D9CFCF93C62FDA
:1019500062EF6C0F6830A0F42C2F4230510569F40F
:1019600041E00E94370C8EEF8C0F823120F460E052
:101970008C2F0E947D0281E004C040E00E94370C61
:1019800080E0CF910895CF93DF93E091DE03F09153
:10199000DF03A82FB0E050E040E0242FEA012E97AB
:1019A000AC17BD0731F04F5F5F4F46315105A9F7C6
:1019B00020E041E06130710509F040E0682FCF017F
:1019C000DF91CF910C94370C0895089508950895F0
:1019D000EF92FF920F931F93CF93DF93CDB7DEB7B4
:1019E000ED970FB6F894DEBF0FBECDBFDC011596A4
:1019F0002C911597222309F463C08C018CE38DAFE1
:101A0000FD0182819381DC01ED91FC910084F185DF
:101A1000E02DAE01435C5F4FBE016F5F7F4F0995C4
:101A2000882309F44DC0F80182819381DC01ED9196
:101A3000FC9106A0F7A1E02D09959FE7F92E8F3FB5
:101A400059F0F80182819381DC01ED91FC9106A0AF
:101A5000F7A1E02D0995F82E0E9413018DE00E9458
:101A6000060182E00E940601F80182819381DC0177
:101A7000ED91FC9100A4F1A5E02D09958F770E94CE
:101A800006018F2D8F770E94060110E08DAD18178B
:101A9000A8F4EE24E394F12CEC0EFD1EE10EF11CF3
:101AA000F70180818F770E940601D7018C91881FF2
:101AB0008827881F0E9406011F5FE8CF0E94ED0063
:101AC000ED960FB6F894DEBF0FBECDBFDF91CF917C
:101AD0001F910F91FF90EF900895FC0115820895DA
:101AE00080E00895FC01118E089580E00895089526
:101AF000EF92FF920F931F93CF93DF93FC01F1803E
:101B0000E08008E010E0D0E8C0E061E08F2D0E94A6
:101B10004F028E2D0E942602019709F4CD2B60E022
:101B20008F2D0E944F02D6950150110971F78C2F0D
:101B3000DF91CF911F910F91FF90EF900895DF9269
:101B4000EF92FF920F931F93CF93DF93EC01888165
:101B50000E9426020197D9F3F12CF894CE010E943D
:101B6000780D082FCE010E94780DD82ECE010E944C
:101B7000780DE82E8A85803829F0803461F012E0F3
:101B8000803251F061E089810E944F0260E08981DA
:101B90000E944F020BC013E061E089810E944F0256
:101BA00060E089810E944F021150B1F7789407FFDD
:101BB00002C0FF24FA940E9426036B877C878D87DE
:101BC0009E876E2D7D2D802F9F2D0E94901FDF916F
:101BD000CF911F910F91FF90EF90DF900895CF92DA
:101BE000DF92EF92FF92CF93DF93FC01218D2223AE
:101BF00009F446C0EC010E942603CA8CDB8CEC8CF5
:101C0000FD8C6C197D098E099F096436710581056B
:101C10009105B0F18A810E942602892B89F50E94E4
:101C200026036A8F7B8F8C8F9D8FCE0102960E9438
:101C30009F0D0E9457206B017C010E9413018EE0D2
:101C40000E94060181E00E940601D0E0C0E0D701B9
:101C5000C6010C2E04C0B695A795979587950A9452
:101C6000D2F78F770E9406012796C332D10579F704
:101C7000DF91CF91FF90EF90DF90CF900C94ED002B
:101C8000DF91CF91FF90EF90DF90CF900895CF93A9
:101C9000DF936E3009F048C0433008F447C0F901C3
:101CA0004081411143C0EC01928181818A839B83F1
:101CB0001A8A62E00E947D0261E08B810E947D02AF
:101CC00060E08B810E944F0261E08B810E944F0295
:101CD0008BEF90E00197F1F760E08B810E944F025B
:101CE0001C821D821E821F8280E090E0A0E8BFE37C
:101CF00088879987AA87BB8780E88C871D861E8680
:101D00001F86188A198A1D8A1E8A1F8A188ECE017C
:101D100002960E949F0D81E0898F1A8E1B8E1C8E69
:101D20001D8EDF91CF91089580E0FBCF81E0F9CF48
:101D30000F931F93CF93DF930E9413018091E203CF
:101D40009091E303DC01ED91FC910190F081E02D95
:101D500069E709958091E2039091E303DC01ED913D
:101D6000FC910190F081E02D6091E603099580914E
:101D7000E2039091E303DC01ED91FC910190F0818D
:101D8000E02D6091E7030995A091E403B091E5038C
:101D9000ED0109900020E9F72197CA1BDB0B10E049
:101DA00000E0C017D10779F0E091E403F091E5037A
:101DB000E00FF11F8081082E000C990B0E941F017B
:101DC0000F5F1F4FEECFDF91CF911F910F910C94BA
:101DD000ED0042E050E06AE472E089E293E00C94A6
:101DE00033030F931F93CF93FC018281938140E0D3
:101DF00054E264EF70E084309105C1F040E052E1BC
:101E00006AE770E08330910589F040E059E06DE3C6
:101E100070E08230910551F040E452E46FE070E0F0
:101E2000019721F440E854E86EE170E0A481B581A7
:101E300086819781009709F466C08130910509F485
:101E40005EC08230910509F45CC0039709F05BC065
:101E50008CE000E012E12AE730E090E04017510703
:101E60006207730740F436952795179507959F5F8E
:101E70009630A1F797E021E0292730E5119709F482
:101E800030E72695282B232B2087909591709187FA
:101E9000CFB7F89480915E02811127C0E1E5F1E0AF
:101EA0008491E5E6F1E09491E82FF0E0EE0FFF1F5A
:101EB000E75DFE4FA591B491EC91E92321F461E037
:101EC0008AE00E944F0261E08AE00E947D028CB5A8
:101ED00080618CBD8CB580648CBD61E08DE00E941A
:101EE0007D0261E08BE00E947D0280915E028F5F47
:101EF00080935E02CFBFCF911F910F91089584E030
:101F0000A8CF88E0A6CF80E0A4CFEF92FF920F93F6
:101F10001F93CF93DF938C010E94851F7C018091DA
:101F20005B0481110EC0E801FE016491662339F063
:101F300089E293E00E94D3032196892BA9F70E949E
:101F4000E90E0E9413018091E2039091E303DC010A
:101F5000ED91FC910190F081E02D61E70995D0E0D1
:101F6000C0E0CE15DF054CF4F801EC0FFD1F8491A5
:101F700090E00E941F012196F4CFDF91CF911F9135
:101F80000F91FF90EF900C94ED004F925F926F9243
:101F90007F928F929F92AF92BF92CF92DF92EF92F9
:101FA0000F931F93CF93DF936C01D62F5A01122FFB
:101FB0004F3F540709F492C081E08093050360937A
:101FC00027031092060310922803642F86EC93E0F7
:101FD0000E94F105802F0E94A804F601E45BFF4FE8
:101FE000808191818230910538F0880F991F880F88
:101FF000991F05970197F1F70E94CE022B013C0132
:102000008091FF0281116CC0C12F113208F0C0E233
:1020100081E08093FF028093FE029FEF9093FD0288
:102020001092FC029C0F9093FB028093DA02909135
:10203000DA028D2F880F892B8093DA028091D902E2
:10204000813009F0A1C01092D9020E94CE022B016A
:102050003C018091DA028093BB0080910103909152
:102060000203A0910303B0910403892B8A2B8B2BCD
:10207000A1F00E94CE022091010330910203409111
:1020800003035091040364197509860997092617FB
:1020900037074807590708F444C08091BC0083FD06
:1020A000D8CF85EC8093BC000E94CE022B013C016E
:1020B0008091FF02813009F469C08091FC028C1785
:1020C00010F4C091FC02ABEDB2E0E4E6F2E080E097
:1020D0008C1761F19D9191938F5FFACFA12C8CCFDA
:1020E0008091010390910203A0910303B091040336
:1020F000892B8A2B8B2B09F483CF0E94CE0220914F
:1021000001033091020340910303509104036419C9
:10211000750986099709261737074807590708F0F0
:102120006FCF809100030E949204C0E0109285025C
:10213000C0938402212F30E08C2F90E028173907BC
:102140000CF046C085EA90E00E94850FF601A2A639
:102150003601FBE26F0E711C912C812CA12EB12C4B
:102160008A149B04DCF59091840280918502981773
:10217000A9F186EC93E00E94AA059FEF891A990ABB
:10218000F30181933F01ECCF85EE8CCF8091010369
:1021900090910203A0910303B0910403892B8A2B31
:1021A0008B2B09F485CF0E94CE0220910103309140
:1021B00002034091030350910403641975098609D1
:1021C0009709261737074807590708F071CFA9CF95
:1021D000821793070CF0BACF1C2FB8CF0E941301BF
:1021E00087E70E9406018D2F0E9406018E2D0E9416
:1021F0000601E601AA96D12CC12C899190E00E949B
:102200001F01FFEFCF1ADF0AAC14BD04B4F7DF9152
:10221000CF911F910F91EF90DF90CF90BF90AF9033
:102220009F908F907F906F905F904F900C94ED00F7
:10223000CF92DF92EF92FF920F931F93CF93DF9392
:102240006C012BE4C20ED11CF601208127FD28C0B1
:10225000EC0110E085E0F82E812F90E0F60120815E
:10226000022E000C330B28173907D4F0F89EF0012A
:10227000F99EF00D1124EC0FFD1F0196F89ED00180
:10228000F99EB00D1124AC0FBD1F43815481E12C88
:1022900006812C916281CE010E94C50F1F5FDCCFA9
:1022A000DF91CF911F910F91FF90EF90DF90CF9032
:1022B0000895CF92DF92EF92FF920F931F93CF93E7
:1022C000DF93E42EE901663729F0683709F4FBC093
:1022D00010E01CC0FC01E65BFF4F10811123B1F040
:1022E000398135FF05C083ED90E00E94850F0EC057
:1022F000688141E036FB002700F90427232F28716D
:10230000283009F43EC060F42223C9F0812FDF9108
:10231000CF911F910F91FF90EF90DF90CF90089594
:10232000203109F44BC0283189F7EC01C55BDF4F40
:10233000388113160CF481C08FEF8883E7CF409368
:10234000050360932703109206031092280302E00E
:102350000E1578F4FE01E00FF11D61816795662787
:1023600067958081680F86EC93E00E94F1050E5F0F
:10237000EFCF81E00E94A80483E191E00197F1F79B
:10238000C5CF7A812B8146E0E41211C0A0E82A9FD4
:10239000A0011124470F511D2D8127952227279534
:1023A0007C81270F3770E32E0E94C50FAFCF279592
:1023B00022272795270F4FEF5FEFF4CFFC01E55B56
:1023C000FF4F408147301CF082EC90E08ECFAA8115
:1023D0003B81B6E0EB122AC050E8359F90011124F2
:1023E000A20FB32FB11D3D813795332737952C812F
:1023F000320F4F5F4083042E000C550B25E0249FC5
:10240000F001259FF00D1124E80FF91F6283B483BA
:10241000A3834F5F5F4F249FB001259F700D112450
:10242000860F971FDC013C93068370CF37953327C7
:1024300037953A0FAFEFBFEFDCCF20E0E32E032E4E
:10244000000CFF0875E0422F50E0E416F50664F03A
:10245000749FF001759FF00D1124E80FF91F428160
:10246000641719F02F5FEFCF20E045E0622F70E096
:10247000E616F7062CF1283008F5FB0131964E9F41
:10248000D0014F9FB00D1124A80FB91F12965C9177
:102490001297469FF001479FF00D11246F01C80E5F
:1024A000D91EF601528313966D917C911497748313
:1024B00063835285558316965C9156832F5FD6CFE2
:1024C0003150388323CF2981B0E82B9FA0011124FC
:1024D0002881240F352F311D2115310529F0FC01EC
:1024E000E45BFF4F318320838C01065B1F4FF801B3
:1024F0008081811144C0D0E0C0E086E0F82EEC2E4F
:102500008C2F82518230E0F4CE018E519C4FFC0121
:10251000E45BFF4F20812F3791F18E599F4FDC01F3
:102520001C92F082E0916204F0916304309721F0F4
:1025300066E070E08C2F099566E08E2D0E947D028A
:102540002196C631D105D9F681E0F80180830E9439
:102550006704109285021092840210920603109272
:1025600028030E94740488E995E09093A802809360
:10257000A70289E995E09093AC028093AB02D80161
:102580001C91C4CE2F923F924F925F926F927F9296
:102590008F929F92AF92BF92CF92DF92EF92FF9273
:1025A0000F931F93CF93DF9300D000D000D0CDB70F
:1025B000DEB75C01062F942E79016B3609F457C003
:1025C0006D3671F010E0663609F06AC1EAE0E41792
:1025D00008F47CC089E790E00E94850F80E02EC05F
:1025E0004423E1F3D9010C910631C0F780EF0E943A
:1025F00006018EE60E940601802F0E94060110E06F
:102600000E511C4FF801E45BFF4F80810E940601D0
:10261000F801EE59FF4F1081812F8F770E9406013C
:10262000812F90E017FF06C0880F892F881F990B14
:102630000E94060187EF0E94060181E026960FB6F0
:10264000F894DEBF0FBECDBFDF91CF911F910F91E8
:10265000FF90EF90DF90CF90BF90AF909F908F90C2
:102660007F906F905F904F903F902F90089580EFF4
:102670000E9406018CE60E9406010EE214E0F12C95
:10268000F80181918F018F37C9F0E12CD5019C961B
:102690008C91E81698F4EE2DF0E03196EE0FFF1FC6
:1026A000EA0DFB1D80819181DC01ED91FC9101908F
:1026B000F081E02D6F2D0995E394E8CF8FE70E941C
:1026C0000601F394B6E1FB12DBCFB4CF11E0D901E0
:1026D0008C91811101C010E0F701818190E09E830F
:1026E0008D8384E090E09C838B8383814480512C94
:1026F000712C612CA7E0440C551C661C771CAA9514
:10270000D1F7482A420135802681878190E0B0E0E8
:10271000A0E007E0880F991FAA1FBB1F0A95D1F7F9
:10272000408550E070E060E03EE0440F551F661FBA
:10273000771F3A95D1F7842B952B822B418550E05A
:1027400070E060E0A5E1440F551F661F771FAA9552
:10275000D1F7482B592B9285892F90E0B0E0A0E06B
:102760000CE1880F991FAA1FBB1F0A95D1F7842B74
:10277000952B9A838983D501ED91FC910684F78589
:10278000E02D9E012F5F3F4F6901CE0103967C0132
:10279000032D9201AE014B5F5F4F612FC50109957B
:1027A000811127C0212CD5019C968C91281608F503
:1027B000E22DF0E03196EE0FFF1FEA0DFB1D808148
:1027C0009181DC01ED91FC910684F785E02D9E015D
:1027D0002F5F3F4F6901DE0113967D01032D9401A8
:1027E000AE014B5F5F4F612F0995811102C02394A9
:1027F000DACF80EF0E94060186E60E940601812F53
:102800000E9406018D810E9406018B810E940601B3
:10281000842D8F770E940601C201880F892F881F9F
:10282000990B91958F770E940601832D0E940601D6
:1028300089809A80092C000CAA08BB08882D8F7704
:102840000E940601D501C40137E0B695A79597957A
:1028500087953A95D1F78F770E940601D501C4017B
:102860004EE0B695A795979587954A95D1F78F77BE
:102870000E940601D501C40155E1B695A79597952B
:1028800087955A95D1F78F770E940601D501C4012B
:102890006CE1B695A795979587956A95D1F7C8CEBF
:1028A000F50184A5181708F099CEE12FF0E03196D4
:1028B000EE0FFF1FEA0DFB1D80819181DC01ED9180
:1028C000FC910480F581E02D9701492D602F099539
:1028D0008111B4CE1F5FE4CFCF93DF93EB01A091C2
:1028E000DC03B091DD03ED91FC9111970280F3813F
:1028F000E02DAB01682FCD010995811109C0CF37BB
:10290000D10531F088E690E0DF91CF910C94850FEE
:10291000DF91CF910895CF93DF93CDB7DEB7DF91ED
:10292000CF9108959A01A091DC03B091DD03ED9160
:10293000FC9111970480F581E02D462F682FCD0181
:1029400009940E94B82185ED8093BC008091010319
:1029500090910203A0910303B09104030796A11D77
:10296000B11D23E0B695A795979587952A95D1F740
:102970002091BC0024FD03C01092FF0208954091F5
:102980000103509102036091030370910403452BEE
:10299000462B472B69F30097A105B10541F02AE2C8
:1029A0002A95F1F700C00197A109B109E1CF809103
:1029B00000030C949204DF92EF92FF920F931F9307
:1029C000CF93DF93EC017B018A01E881F9810680D6
:1029D000F781E02D0995D82E8823D1F0E114F10478
:1029E000B1F00115110599F0FE01E359FF4F808107
:1029F0008750F8019081891708F48083F80140819D
:102A000050E0BE01625D7F4FC7010E94BD2119A247
:102A10008D2DDF91CF911F910F91FF90EF90DF905F
:102A200008954F925F926F927F92AF92BF92CF9232
:102A3000DF92EF92FF921F93CF93DF9300D0CDB739
:102A4000DEB77C01909363028093620261E0FC0137
:102A5000848D0E947D0260E0F701838D0E947D02DB
:102A600061E0F701858D0E947D02C7010E94250665
:102A7000F701C18CD28CC114D10409F444C0F12CEB
:102A8000E12C83E0CC0CDD1CEE1CFF1C8A95D1F7F9
:102A900095EFA92E90E0B92E11E0412C24E2522EA0
:102AA00024EF622E712C42E050E0B501CE01019678
:102AB0000E947C1F29813A8150E040E0C301B201AD
:102AC0000E942620CA01B901A70196010E94262072
:102AD000DA01C9010297A109B1098D3F9F4FA105F4
:102AE000B10510F11F5F62E0A60EB11C1730D9F6D8
:102AF000223031054105510530F02115310581E0C5
:102B00004807510598F081E00F900F90DF91CF9129
:102B10001F91FF90EF90DF90CF90BF90AF907F908C
:102B20006F905F904F900895163069F31092800077
:102B300088E08093810080918100182B10938100A0
:102B4000309389002093880080916F008260809389
:102B50006F00D9CF8F929F92AF92BF92CF92DF92A8
:102B6000EF92FF92CF93DF93FC012789308D232BC7
:102B7000B9F1EC010E9426034B015C0189E0C82EEB
:102B8000D12CE12CF12CE881F981008CF18DE02D24
:102B9000CE010995882321F10E942603AB01BC01D7
:102BA000481959096A097B098F89988DB0E0A0E01E
:102BB00084179507A607B707F8F00E94241FA701FE
:102BC00096010E94F41F9B01AC012F5F3F4F4F4FB6
:102BD0005F4FA4E6B0E00E9413200E94F302D3CF1F
:102BE00081E0DF91CF91FF90EF90DF90CF90BF9089
:102BF000AF909F908F90089580E0F3CF0C942F2199
:102C00000C942F210C942F210C942F210C942F2104
:102C10000C942F210C942F210C942F210C942F21F4
:102C2000AF92BF92CF92DF92EF92FF920F931F93DA
:102C3000CF93DF93CDB7DEB7E2970FB6F894DEBF40
:102C40000FBECDBFD12C6D3009F0E8C079018C01E9
:102C5000443008F487C0D9018C91811183C0F801F8
:102C600082819381009739F0DC01ED91FC91028023
:102C7000F381E02D0995F7018181D80114968C9399
:102C800080E091E00E949320F70133814281DC01D2
:102C900013961C921E9212972FEF14962C93149752
:102CA0001A962C931A971B962C931B971C961C9282
:102CB0001C971D961C921D9751961C921E92509720
:102CC00053961C921E92529755961C921E925497A0
:102CD00058961C921E92579764E371E011967C936C
:102CE0006E9360ED77E05A967C936E9359975B965E
:102CF0004C935B975C963C935C972AE05D962C9393
:102D00005D975E961C925E975F961C9228E0E4E1C8
:102D1000F1E0DE01119601900D922A95E1F7DC01B8
:102D2000AF58BF4F28E0FE01319601900D922A95D1
:102D3000E1F7F801938382830E941115D80112965E
:102D40008D919C91DC01ED91FC91028CF38DE02D35
:102D5000D80114966C91099581E0F8018583DD24F2
:102D6000D3945CC0D8011596DC90DD20C1F34230CD
:102D700008F454C0F7018081813009F04FC0C18050
:102D8000FFE7CF1202C0CC24CA94F701CE0101960E
:102D90005C01DC0183E090E050E0FA2EFA18841721
:102DA00095076CF432968736910539F02081318190
:102DB00030FB27F92D930296F0CF82E3F82ED8014D
:102DC00012968D919C91DC01ED91FC91068CF78D12
:102DD000E02DD80114966C910995F80182819381B8
:102DE000DC01ED91FC91048CF58DE02D6C2D0995A5
:102DF000F80182819381DC01ED91FC910284F385DD
:102E0000E02D4F2DB5010995F80182819381DC01F8
:102E1000ED91FC910088F189E02D09958D2DE296C8
:102E20000FB6F894DEBF0FBECDBFDF91CF911F91DB
:102E30000F91FF90EF90DF90CF90BF90AF900895EB
:102E40001F920F920FB60F9211242F933F938F93DF
:102E50009F93AF93BF938091D1029091D202A091A2
:102E6000D302B091D4023091D00223E0230F2D374A
:102E700058F50196A11DB11D2093D0028093D10277
:102E80009093D202A093D302B093D4028091D50242
:102E90009091D602A091D702B091D8020196A11DBF
:102EA000B11D8093D5029093D602A093D702B09320
:102EB000D802BF91AF919F918F913F912F910F9029
:102EC0000FBE0F901F90189526E8230F0296A11DA4
:102ED000B11DD2CF1F920F920FB60F9211242F93D4
:102EE0003F934F935F936F937F938F939F93AF9392
:102EF000BF93EF93FF93E0910201F09103010995D5
:102F0000FF91EF91BF91AF919F918F917F916F91C1
:102F10005F914F913F912F910F900FBE0F901F9097
:102F200018951F920F920FB60F9211242F933F9373
:102F30004F935F936F937F938F939F93AF93BF93C1
:102F4000EF93FF93E0910001F09101010995FF914A
:102F5000EF91BF91AF919F918F917F916F915F9111
:102F60004F913F912F910F900FBE0F901F9018958A
:102F70001F920F920FB60F9211242F933F934F93EE
:102F80005F936F937F938F939F93AF93BF93EF93D1
:102F9000FF9389E293E00E94B103FF91EF91BF910B
:102FA000AF919F918F917F916F915F914F913F91E1
:102FB0002F910F900FBE0F901F9018951F920F9298
:102FC0000FB60F9211242F938F939F93EF93FF933C
:102FD000E0913903F0913A038081E0913F03F09151
:102FE000400382FD1BC09081809142038F5F8F73ED
:102FF00020914303821741F0E0914203F0E0E75D46
:10300000FC4F958F80934203FF91EF919F918F9199
:103010002F910F900FBE0F901F9018958081F4CFC5
:103020001F920F920FB60F9211240F900FBE0F90A8
:103030001F9018951F920F920FB60F9211242F9385
:103040003F934F935F936F937F938F939F93AF9330
:10305000BF93EF93FF938091B900887F803609F486
:103060004AC0F0F5883209F4A7C018F5803109F498
:103070009BC0B8F4882309F4F9C0883009F494C0DF
:10308000FF91EF91BF91AF919F918F917F916F9140
:103090005F914F913F912F910F900FBE0F901F9016
:1030A0001895883109F488C0803251F78093FD0269
:1030B00014C0803409F49DC040F48033B9F38833E0
:1030C000F9F68093FD0285ECB0C0803509F485C027
:1030D000883509F496C0883499F60E94A314D0CF9D
:1030E000883909F48CC038F5883729F050F48836CF
:1030F00011F0803729F683E08093FF021092CD0211
:1031000057C0883809F47BC0803919F0803809F03D
:10311000B7CF8091CD02803208F071C0E091CD022E
:1031200081E08E0F8093CD028091BB00F0E0E355EB
:10313000FD4F80833DC0803B39F0E0F4803A09F4D4
:1031400079C0883A09F09CCF84E08093FF02109206
:10315000AA021092A902E091A702F091A802099593
:103160008091A90281110FC081E08093A902109281
:10317000870209C0803C09F4A6CF883C09F4A3CF9C
:10318000883B09F07DCFE091AA0281E08E0F809309
:10319000AA02F0E0E957FD4F80818093BB00909137
:1031A000AA028091A90229C08091DA028093BB0013
:1031B00085EC8093BC0064CF9091FC028091FB026F
:1031C000981758F5E091FC0281E08E0F8093FC0285
:1031D000F0E0E552FD4F8081E9CFE091FC0281E013
:1031E0008E0F8093FC028091BB00F0E0E552FD4F12
:1031F00080839091FC028091FB029817C8F285E8C9
:10320000D8CFE091FC0281E08E0F8093FC02809188
:10321000BB00F0E0E552FD4F80838091FE028111FA
:103220005CCF81E08093D90284EA8093BC00109245
:10323000FF0226CF85EC8093BC001092FF028091A4
:10324000CD02803230F4E091CD02F0E0E355FD4F45
:1032500010826091CD0270E0E091AB02F091AC027F
:103260008DEA92E009951092CD020ACF1092FD02EC
:1032700034CF1F920F920FB60F921124CF92DF928C
:10328000EF92FF920F931F932F933F934F935F9370
:103290006F937F938F939F93AF93BF93CF93DF935E
:1032A000EF93FF93C0916202D09163028A819B8168
:1032B000049709F0C7C08B8D0E94260221E0892B5C
:1032C00009F420E08E8D922F9827281719F08BA1F2
:1032D0008F5F8BA38AA18917F1F18CA12DE1803535
:1032E00008F42BE08CA1820F8CA39AA38CA1803AC6
:1032F00008F46DC08EA19FA1969587959FA38EA37C
:103300008BA1853028F08EA19FA198609FA38EA3EA
:103310008CA1805A8CA31BA28DA1882309F486C09E
:1033200088A58F5F88A78C3008F451C08EA19FA11B
:10333000982F9F73892F86958695887028E0280F8F
:10334000821769F0E82FF0E0E059FE4F30819317C3
:1033500039F08F5FF5CF8CA18C5E8CA3C7CF80E056
:1033600090E1899F900111248EA19FA136E096954E
:1033700087953A95E1F7482F959587959595879587
:10338000887098E0980F981749F0E82FF0E0E0591E
:10339000FE4F5081451719F08F5FF5CF80E0822BEB
:1033A000DE01A359BF4F9C91AE0144595F4F91116B
:1033B00027C0FA0180839081973018F0908194346F
:1033C000F8F01DA2888999890196998B888BFF91C5
:1033D000EF91DF91CF91BF91AF919F918F917F91AD
:1033E0006F915F914F913F912F911F910F91FF909E
:1033F000EF90DF90CF900F900FBE0F901F90189519
:103400002C9191E0920F9C932C0F3D2F311DF901CF
:1034100081A79C91DA018C91981730F01DA281E070
:1034200088A3CE010E94250618A6D1CF8EA19FA108
:1034300088339B4061F681E08DA318A6C359DF4F06
:103440001882C5CF8A819B81039709F68E010059A6
:103450001F4FF801808191E0980F9083811113C074
:103460006E01FEE6CF0ED11CD601EC91AF56BF4FD8
:103470008C91E81778F0CE010E9425068C899D89F1
:1034800001969D8B8C8BD8018C91883008F49FCF4E
:103490001C929DCFEC0FFD2FF11DEF58FF4F608167
:1034A00070E07E01BFE6EB0EF11CF701808191E038
:1034B000980F908302C0759567958A95E2F76170C1
:1034C0008C8D0E944F02D7018C918630E0F21C92C5
:1034D000F60180818F5F8083D6CF10922C031092EB
:1034E0002B0388EE93E0A0E0B0E080932D0390934F
:1034F0002E03A0932F03B093300324E831E03093E0
:103500002A032093290325EC30E0309336032093DF
:10351000350324EC30E0309338032093370320EC5C
:1035200030E030933A032093390321EC30E03093BC
:103530003C0320933B0322EC30E030933E03209386
:103540003D0326EC30E03093400320933F0310927C
:1035500042031092430310924403109245031092C9
:10356000C9031092C8038093CA039093CB03A0931E
:10357000CC03B093CD0386E991E09093C703809389
:10358000C6031092D5031092D4031092D703109261
:10359000D6031092D9031092D80388EA91E0909351
:1035A000D3038093D20380E58093DA031092DB0388
:1035B0001092E7031092E6038CE492E09093E50307
:1035C0008093E40310926E040E94B6018AE392E0B5
:1035D00090931D0580931C051092240510922105DF
:1035E00010921E05109225051092220510921F05BB
:1035F0001092260510922305109220058CE195E08B
:103600009093700480936F0483EC9BE0909361042B
:103610008093600486E292E090931B0580931A05E4
:103620008AE195E09093E1038093E0038BE99AE0CF
:1036300090935D0480935C0480E89AE09093650425
:103640008093640482E192E09093170580931605BD
:1036500086E195E09093DF038093DE0310921905D5
:103660001092180583EC9CE090935F0480935E04B5
:103670008EEF91E09093C9048093C80410921205D4
:103680008FEF809313051092150510921405E2EF49
:10369000F4E090E2DF011D929A95E9F72AEE31E01D
:1036A0003093AB042093AA048093BD048AE08093F6
:1036B000BE041092AE041092AF041092B0041092A7
:1036C000B10480E090E0A0E8BFE38093B20490935F
:1036D000B304A093B404B093B50480E88093B60417
:1036E0001092B7041092B8041092B9041092BA0460
:1036F0001092BB041092BC041092BF041092C0043C
:103700001092C1041092C2041092C3041092C40417
:103710001092C5041092C6041092C70486ED91E081
:1037200090937E0480937D048DE794E09093DD0375
:103730008093DC038CE694E19093630480936204AD
:1037400082E994E190936B0480936A04EFE7F4E0DC
:1037500011921192B4E0E93AFB07D1F71092A90453
:1037600082EC91E090937204809371041092730440
:1037700010927404109275041092760410927704DB
:10378000109278041092790410927A0481E090E00B
:1037900090937C0480937B040895789484B5826030
:1037A00084BD84B5816084BD85B5826085BD85B5E5
:1037B000816085BD80916E00816080936E00109263
:1037C00081008091810082608093810080918100DE
:1037D000816080938100809180008160809380006F
:1037E0008091B10084608093B1008091B0008160CD
:1037F0008093B00080917A00846080937A008091F9
:103800007A00826080937A0080917A008160809350
:103810007A0080917A00806880937A001092C100CB
:103820008DE492E09093E5038093E40383E080933A
:10383000E6038093E7038CE195E00E946A018AE148
:1038400095E00E946A0186E195E00E946A0188EC99
:1038500094E00E946A018AEA94E00E946A0184E08E
:1038600091E00E946A0181E794E00E946A0185E28A
:103870009AE09093670480936604E0913903F09195
:103880003A0382E08083E0913903F0913A03108299
:10389000E0913503F09136031082E0913703F09107
:1038A000380380E1808310924103E0913D03F09161
:1038B0003E0386E08083E0913B03F0913C038081EE
:1038C00080618083E0913B03F0913C0380818860BC
:1038D0008083E0913B03F0913C038081806880838A
:1038E000E0913B03F0913C0380818F7D80831092B7
:1038F0002D0310922E0310922F031092300389E2B1
:1039000093E09093E3038093E20381E080935B0470
:1039100080916E0481113EC061E08DE00E947D02C5
:10392000C3E062ED70E080E090E00E94F30261E0AD
:103930008DE00E944F0268E270E080E090E00E941B
:10394000F30260E08DE00E944F02C15051F76AEF30
:1039500070E080E090E00E94F302C3E062ED70E06E
:1039600080E090E00E94F30261E08DE00E944F024F
:1039700068E270E080E090E00E94F30260E08DE099
:103980000E944F02C15051F76DE770E080E090E077
:103990000E94F3020E9446018091E603882341F0D1
:1039A0008091E2039091E303892B11F00E94980E1D
:1039B00090E0292E90E0392EFF24F39422E0E22EAD
:1039C0003FE6D32E47EFC42E04E010E08091E203DF
:1039D0009091E303DC01ED91FC910084F185E02DF1
:1039E0000995892B09F479C18091E2039091E30351
:1039F000EC01E881F9810284F385E02D09958F3F80
:103A0000980721F3382F8F3F59F410922B0410920E
:103A10002D0410922C041092E8030E94B601D6CF18
:103A200020912B04222309F482C060912C04709110
:103A30002D04873F09F060C010922B0461157105B9
:103A400029F28091EB03813791F0893709F048C062
:103A50008091E603882309F4B9CF8091E203909125
:103A6000E303892B09F4B2CF0E94980EAFCFE09107
:103A70006804F0916904309709F4A8CFDB0111972D
:103A8000B7FDDB01B595A795BA2EAA2309F49ECF01
:103A900022EE33E04BEE53E090E0E901AA84EA0124
:103AA000A992AE01BE0161507109E9018B8587952C
:103AB000882787958A0DEB0188839F5F2E5F3F4F94
:103AC0009B1558F3BB27AE51BC4F18968C91189795
:103AD000882311F019961C928BEE93E0099576CF0E
:103AE000E0916A04F0916B04309709F46FCF615054
:103AF0004CEE53E009956ACF6034710569F481E0BA
:103B000091E00E94850F10922B0410922D041092C8
:103B10002C041092E8035ACFFB01EE51FC4F818731
:103B20006F5F7F4F70932D0460932C044FCF2091D3
:103B3000E803222309F492C087FD90C09FEF920F03
:103B40009093E803E92FF0E0EE51FC4F818791114B
:103B50003DCF8091E903882309F438CF803D09F4F3
:103B600072C060F4803989F1E0915E04F0915F04E5
:103B7000803C09F46CC01092E90328CF843FC9F15E
:103B8000853F09F454C0803EB1F78091EB039091DA
:103B9000EC03D092EB032091EA032093EC03909383
:103BA000ED038093EE03C092EF0310932D04009376
:103BB0002C04E0916A04F0916B043097E1F24CEE32
:103BC00053E063E08FE60995D6CFE0915C04F09175
:103BD0005D04309781F26091EB03D0E86D9FC001E6
:103BE00011246091EC03680F792F711D8091EA0315
:103BF0001CC08091EC03282F30E02E513C4FF9017E
:103C0000E45BFF4F90819F3709F4B5CF6091EB03E0
:103C10002E593F4FD9011C926083E0916204F091CC
:103C2000630470E0309709F4A6CF0995A4CFE09122
:103C30006404F09165046091EB0370E08091EC0303
:103C4000309799F798CFE0916004F0916104309734
:103C500009F491CF6091EB0370E0C8CF303FB8F426
:103C6000282F207F30E08F708093EA03203F3105BA
:103C700051F1BCF4203C310519F164F420393105CF
:103C800009F0A4CEE092E8032093E9039FCE9C01C3
:103C90003327ECCF203D310599F0203E310591F3DB
:103CA00095CE293F3105B1F034F4C901845F910903
:103CB000029740F38BCE2F3F310509F4AECE86CE6E
:103CC000F092E803E1CFF0922B0410922D041092B1
:103CD0002C047CCE0E94460179CE0E94260360937C
:103CE00073047093740480937504909376048090A9
:103CF000770490907804A0907904B0907A04409072
:103D00007B0450907C04712C612C9B01AC01281920
:103D100039094A095B09421653066406750608F01C
:103D200045C0840C951CA61CB71C9B01AC0128192E
:103D300039094A095B09421653066406750648F1BB
:103D40008092770490927804A0927904B0927A04D9
:103D500086E195E00E94F60B61E088EC94E00E9419
:103D60001811BB24B3946B2D8AEA94E00E94EF0DE6
:103D70006B2D84E091E00E94E80C2114310409F4D9
:103D800025CE0E949D03882309F420CE0E940000C6
:103D90001DCE64197509860997096093770470939D
:103DA00078048093790490937A04D2CFB12CDBCF3E
:103DB0008F929F92AF92BF92CF92DF92EF92FF923B
:103DC000CF93DF93EC01688179818A819B816115B2
:103DD00071058105910521F464E279ED8BE597E0A9
:103DE0002DE133EF41E050E00E94F41F49015A01F8
:103DF0009B01AC01A7EAB1E40E9413206B017C0196
:103E0000ACEEB4EFA50194010E942120C60ED71E8E
:103E1000E81EF91EF7FE06C081E0C81AD108E108C5
:103E200080E8F80AC882D982EA82FB82C701B6011B
:103E30009F77DF91CF91FF90EF90DF90CF90BF9071
:103E4000AF909F908F9008958F929F92AF92BF9264
:103E5000CF92DF92EF92FF9260910A0170910B0175
:103E600080910C0190910D016115710581059105FD
:103E700021F464E279ED8BE597E02DE133EF41E049
:103E800050E00E94F41F49015A019B01AC01A7EACE
:103E9000B1E40E9413206B017C01ACEEB4EFA501EC
:103EA00094010E942120C60ED71EE81EF91EF7FEBF
:103EB00006C081E0C81AD108E10880E8F80AC0927B
:103EC0000A01D0920B01E0920C01F0920D01C701A2
:103ED000B6019F77FF90EF90DF90CF90BF90AF90AB
:103EE0009F908F90089560930A0170930B018093C7
:103EF0000C0190930D010895FB01DC0102C00590B7
:103F00000D9241505040D8F70895FC0105900020D3
:103F1000E9F7809590958E0F9F1F0895E89409C04A
:103F200097FB3EF490958095709561957F4F8F4FEC
:103F30009F4F9923A9F0F92F96E9BB279395F69502
:103F4000879577956795B795F111F8CFFAF4BB0F80
:103F500011F460FF1BC06F5F7F4F8F4F9F4F16C0E4
:103F6000882311F096E911C0772321F09EE8872F6E
:103F7000762F05C0662371F096E8862F70E060E02A
:103F80002AF09A95660F771F881FDAF7880F9695A3
:103F9000879597F9089557FD9058440F551F59F08C
:103FA0005F3F71F04795880F97FB991F61F09F3F26
:103FB00079F087950895121613061406551FF2CF4F
:103FC0004695F1DF08C0161617061806991FF1CF9F
:103FD00086957105610508940895E894BB276627C6
:103FE0007727CB0197F90895052E97FB1EF40094CF
:103FF0000E940B2057FD07D00E94262007FC03D00B
:104000004EF40C940B2050954095309521953F4FE0
:104010004F4F5F4F089590958095709561957F4FB4
:104020008F4F9F4F08950E944820A59F900DB49FE9
:10403000900DA49F800D911D11240895B7FF0C943D
:1040400013200E941320821B930B0895A1E21A2EC5
:10405000AA1BBB1BFD010DC0AA1FBB1FEE1FFF1F2C
:10406000A217B307E407F50720F0A21BB30BE40B7C
:10407000F50B661F771F881F991F1A9469F76095C3
:104080007095809590959B01AC01BD01CF0108957D
:10409000A29FB001B39FC001A39F700D811D112489
:1040A000911DB29F700D811D1124911D08950E94D4
:1040B0005E206894B1110C94EE1F08950E94D31FE6
:1040C00088F09F5798F0B92F9927B751B0F0E1F0D9
:1040D000660F771F881F991F1AF0BA95C9F714C089
:1040E000B13091F00E94ED1FB1E008950C94ED1FE6
:1040F000672F782F8827B85F39F0B93FCCF38695C2
:1041000077956795B395D9F73EF49095809570951E
:1041100061957F4F8F4F9F4F0895EE0FFF1F0590C2
:10412000F491E02D09940F931F93CF93DF93823086
:10413000910510F482E090E0E0912905F0912A05C4
:1041400030E020E0B0E0A0E0309799F4211531058F
:1041500009F44AC0281B390B24303105D8F58A816F
:104160009B816115710589F1FB0193838283FE01B7
:1041700011C0408151810281138148175907E0F035
:104180004817590799F4109761F012960C931297FB
:1041900013961C933296CF01DF91CF911F910F910F
:1041A00008950093290510932A05F4CF21153105B0
:1041B00051F04217530738F0A901DB019A01BD0104
:1041C000DF01F801C1CFEF01F9CF90932A05809369
:1041D0002905CDCFFE01E20FF31F81939193225069
:1041E000310939832883D7CF2091270530912805BD
:1041F000232B41F4209110013091110130932805B7
:104200002093270520910E0130910F0121153105D2
:1042100041F42DB73EB74091120150911301241B78
:10422000350BE0912705F0912805E217F307A0F47C
:104230002E1B3F0B2817390778F0AC014E5F5F4FFC
:104240002417350748F04E0F5F1F50932805409301
:104250002705819391939FCFF0E0E0E09CCFCF932F
:10426000DF930097E9F0FC01329713821282A0914C
:104270002905B0912A05ED0130E020E01097A1F466
:1042800020813181820F931F2091270530912805CD
:104290002817390709F061C0F0932805E093270536
:1042A000DF91CF910895EA01CE17DF07E8F54A8143
:1042B0005B819E0141155105B1F7E901FB83EA835A
:1042C00049915991C40FD51FEC17FD0761F4808106
:1042D00091810296840F951FE901998388838281D9
:1042E00093819B838A83F0E0E0E012968D919C910C
:1042F00013970097B9F52D913C911197CD01029636
:10430000820F931F20912705309128052817390720
:1043100039F6309751F510922A0510922905B0937D
:104320002805A0932705BCCFD383C2834081518148
:10433000840F951FC817D90761F44E5F5F4F8881BE
:104340009981480F591F518340838A819B819383B0
:1043500082832115310509F0B0CFF0932A05E0934F
:1043600029059ECFFD01DC01C0CF13821282D7CF79
:1043700081E090E0F8940C94C621FB01DC0102C0BE
:1043800001900D9241505040D8F70895F894FFCF16
:104390003203320320010000000001000000000091
:1043A0002B0580002A2A2A2A2A2A382C00000000FD
:1043B000AE06700D10166D0DE80CE70C0E16750D9F
:1043C00000000000E50C0A161115F608DB14AF0713
:1043D00023066D071B07EC062307AA15BC06E60695
:1043E000E306E006DD06D606E906D306D006CD06CE
:1043F000CA06C606C206BE06BC06B806B406B006A5
:104400000D0E131516191A1C232526292A2C3234B1
:1044100000000000D30333036003200491036F0303
:10442000830300000000F105C40520069A05BD05C0
:10443000AA059B05000000009B069A059A05F10E4F
:104440008706AA06A606A2066A0659063F060000C7
:104450000000BB09B9099D098D09770DE60CFE1511
:10446000750D00000000BB09290AC212050AE10906
:10447000BC090216BD0900000000AE06700D470E13
:10448000720DEF0DE40C0C16750D000000006409B0
:104490006E0959115709181156090016750D0000BB
:1044A00000002D0CA60C660C290C240C280C0816F8
:1044B000750D00000000570A610A7E0A9A05770D03
:1044C000560A0416750D00000000360B460B7E0AD6
:1044D0002B0B7E0B2A0B0616750D0D0A0046656D1B
:0A44E00075734669726D6174610026
:00000001FF
