:100000000C946A000C9420090C94F9080C949F0934
:100010000C949F090C949F090C9492000C949200EC
:100020000C9492000C9492000C9492000C94170A79
:100030000C9492000C9492000C9492000C949200F8
:100040000C94AF080C9492000C946D090C94470921
:100050000C9492000C9492000C9492000C949200D8
:100060000C9492000C9492000000010008004000E3
:1000700000010004050D00000000240027002A00F4
:100080000000000800020100000304070000000057
:1000900000000000000000002300260029000000EE
:1000A0000000250028002B000404040404040404B8
:1000B0000202020202020303030303030102040813
:1000C00010204080010204081020010204081020C2
:1000D000650B7A0E11241FBECFEFD8E0DEBFCDBF77
:1000E00011E0A0E0B1E0EEE7F2E202C005900D926F
:1000F000AA3DB107D9F724E0AAEDB1E001C01D92F5
:10010000AD32B207E1F710E0C9E6D0E004C02197B4
:10011000FE010E94E20FC836D107C9F70E94830C86
:100120000C9432110C940000FC01538D448D252F4A
:1001300030E0842F90E0821B930B541710F0CF9681
:10014000089501970895FC01918D828D981761F0B3
:10015000A28DAE0FBF2FB11D5D968C91928D9F5FCA
:100160009F73928F90E008958FEF9FEF0895FC01A9
:10017000918D828D981731F0828DE80FF11D858D5C
:1001800090E008958FEF9FEF0895FC01918D228DEF
:10019000892F90E0805C9F4F821B91098F73992774
:1001A0000895FC01A48DA80FB92FB11DA35ABF4F0C
:1001B0002C91848D90E001968F739927848FA68966
:1001C000B7892C93A089B1898C91837080648C93BA
:1001D000938D848D981306C00288F389E02D808169
:1001E0008F7D80830895EF92FF920F931F93CF939B
:1001F000DF93EC0181E0888F9B8D8C8D98131AC062
:10020000E889F989808185FF15C09FB7F894EE8948
:10021000FF896083E889F9898081837080648083A5
:100220009FBF81E090E0DF91CF911F910F91FF90F0
:10023000EF900895F62E0B8D10E00F5F1F4F0F7398
:100240001127E02E8C8D8E110CC00FB607FCFACF53
:10025000E889F989808185FFF5CFCE010E94D10020
:10026000F1CFEB8DEC0FFD2FF11DE35AFF4FF08224
:100270009FB7F8940B8FEA89FB8980818062CFCF8A
:10028000CF93DF93EC01888D8823B9F0AA89BB89CD
:10029000E889F9898C9185FD03C0808186FD0DC0B8
:1002A0000FB607FCF7CF8C9185FFF2CF808185FFD9
:1002B000EDCFCE010E94D100E9CFDF91CF9108951B
:1002C00083E692E00E94C50021E0892B09F420E03A
:1002D000822F089580E090E0892B29F00E94600130
:1002E00081110C9400000895833081F028F481304E
:1002F00099F08230A9F008958730A9F08830C9F0CC
:100300008430B1F4809180008F7D03C080918000A3
:100310008F7780938000089584B58F7784BD08958A
:1003200084B58F7DFBCF8091B0008F778093B00034
:1003300008958091B0008F7DF9CF1F93CF93DF9305
:10034000282F30E0F901E058FF4F8491F901E4547F
:10035000FF4FD491F901E855FF4FC491CC23A9F088
:10036000162F81110E947401EC2FF0E0EE0FFF1F99
:10037000E256FF4FA591B4918FB7F894EC9111110B
:1003800008C0D095DE23DC938FBFDF91CF911F9102
:100390000895DE2BF8CFCF93DF9390E0FC01E45477
:1003A000FF4F249188559F4FFC0184918823D1F001
:1003B00090E0880F991FFC01EA58FF4FA591B49176
:1003C000FC01E256FF4FC591D49161110EC09FB759
:1003D000F8948C91E22FE0958E238C932881E22370
:1003E000E8839FBFDF91CF9108958FB7F894EC9188
:1003F000E22BEC938FBFF6CF3FB7F89480915F026A
:1004000090916002A0916102B091620226B5A89B12
:1004100005C02F3F19F00196A11DB11D3FBFBA2F96
:10042000A92F982F8827BC01CD01620F711D811D56
:10043000911D42E0660F771F881F991F4A95D1F7DB
:1004400008958F929F92AF92BF92CF92DF92EF92D8
:10045000FF926B017C010E94FC014B015C01C11405
:10046000D104E104F104B9F00E94FC016819790992
:100470008A099B09683E73408105910580F321E05C
:10048000C21AD108E108F10888EE880E83E0981EB0
:10049000A11CB11CE4CFFF90EF90DF90CF90BF90F4
:1004A000AF909F908F9008952FB7F89460915B0262
:1004B00070915C0280915D0290915E022FBF089561
:1004C000FC0162870895FC0163870895FC01648341
:1004D00008950895AF92BF92CF92DF92EF92FF926C
:1004E0000F931F93CF93DF936C017B018B01040F5C
:1004F000151FEB015E01AE18BF08C017D10759F0F8
:100500006991D601ED91FC910190F081E02DC60139
:100510000995892B79F7C501DF91CF911F910F9133
:10052000FF90EF90DF90CF90BF90AF900895209113
:100530002202309123022817390771F4909120028A
:1005400080912102981741F0E0912002F0E0E05202
:10055000FE4F808190E008958FEF9FEF08950895FA
:10056000EF92FF920F931F93CF93DF93DC015C9682
:10057000ED90FC905D97E114F10479F481E090E056
:1005800013969C938E93129790E080E0DF91CF9129
:100590001F910F91FF90EF9008955196ED91FC916E
:1005A000529750968C915097982F90950FB75E96D2
:1005B0002C915E97122F127021FD6095F894208186
:1005C000112319F1282B2083E7012197F1F728E067
:1005D000462F50E0308160FF1AC0382B3083E7018E
:1005E0002197F1F7BA0175956795215089F7112385
:1005F00081F08081892380830FBF5C968D919C91CF
:100600000197F1F781E090E0C1CF2923DCCF3923B6
:10061000E5CF9081892BEFCF2091220230912302E8
:100620002817390761F4809121022091200290E07F
:10063000805C9F4F821B91098F739927089590E0EA
:1006400080E0089520912202309123022817390773
:10065000B9F49091200280912102981789F0E091DD
:100660002002F0E0E052FE4F80812091200230E035
:100670002F5F3F4F2F7333272093200290E0089580
:100680008FEF9FEF089590E080E0089508958CE348
:100690000895CF93DF93FC0122813381223031050D
:1006A00069F0EC01678D858D0E949D0160E08C8D65
:1006B0000E949D0182E090E09B838A83DF91CF912D
:1006C000089581E008952FB7F89491E0662339F0FA
:1006D00092E0613021F082E08093DD0190E0809132
:1006E000DC01892B8093DC018091DD01811103C045
:1006F00081E08093DD012FBF08958091DD01882383
:1007000061F09FB7F8942091DD018091DB012130E9
:1007100019F48DBB9FBF08958FBF0895FC013085EC
:1007200021858091DD01882381F09FB7F894809125
:10073000DD01813069F48DB38093DB014DB380918D
:10074000DC01809584238DBB9FBF3CBD2DBD0895EA
:100750009093DB01FACF9FB7F8948091DA01882358
:1007600019F081508093DA018091DA01811105C07E
:100770008CB58F7B8CBD1092DD019FBF08956EBD3F
:1007800000000DB407FEFDCF8EB50895FC01738304
:1007900062830895FC01778366830895FC01758365
:1007A0006483089508950895FC01848995890895C6
:1007B000FC01828993890895FC01808991890895BB
:1007C00080E00895FC01738362830895FC018281B7
:1007D00093810895FC01868597850895FC018185A4
:1007E0000895FC0180850895FC0187810895FC012E
:1007F000868108954095FC0125854223642B6587F9
:100800000895FC0164870895FC01658308958F9223
:100810009F92AF92BF92CF92DF92EF92FF92CF93CF
:10082000DF93EC016B010E9454024B015C01F12C3F
:10083000E12C0E945402681979098A099B096C15F8
:100840007D058E059F0580F48A819B81039789F33E
:1008500081E0DF91CF91FF90EF90DF90CF90BF903C
:10086000AF909F908F90089580E0F3CFFC0122819C
:10087000338123303105D1F381E008954F925F92A7
:100880006F927F928F929F92AF92BF92CF92DF92A0
:10089000EF92FF920F931F93CF93DF93EC016B01C5
:1008A0008A010E9454022B013C01F12CE12C4801E9
:1008B000B12CA12C0E94540264197509860997096C
:1008C0006C157D058E059F0588F4E881F981068009
:1008D000F781E02DCE010995811109C0011511059F
:1008E00049F3C501B4010E942102E4CF80E0DF9109
:1008F000CF911F910F91FF90EF90DF90CF90BF901D
:10090000AF909F908F907F906F905F904F900895E1
:10091000CF92DF92EF92FF920F931F93CF93DF93CB
:10092000EC018B016B01F12CE12CE881F98106804F
:10093000F781E02DCE010995811108C0011511053F
:10094000A1F3C701B6010E942102EFCFDF91CF9141
:100950001F910F91FF90EF90DF90CF900895862721
:1009600020E1829FB00111248627482F50E0292FD3
:10097000382FCA0164E0959587956A95E1F7282795
:100980003927CA0173E0880F991F7A95E1F782270A
:10099000932708956F927F928F929F92AF92BF920A
:1009A000CF92DF92EF92FF920F931F93CF93DF933B
:1009B0004D3388F0712C872DDF91CF911F910F91CE
:1009C000FF90EF90DF90CF90BF90AF909F908F906F
:1009D0007F906F900895042F5B01EC01E881F9810D
:1009E0000088F189E02D0995E881F9810688F78969
:1009F000E02DCE010995782E8823E1F27E0129E7CA
:100A0000E20EF11C17E0100F612F8FEF9FEF0E9495
:100A1000AF04E12FF0E064E0F595E7956A95E1F722
:100A2000EA5EFE4F2081F70120831F70E12FF0E086
:100A3000EA5EFE4F2081FE01E658FF4F20831A85B3
:100A4000612F0E94AF04E12FF0E074E0F595E79587
:100A50007A95E1F7EA5EFE4F2081FE01E558FF4FEF
:100A600020831F70E12FF0E0EA5EFE4F2081FE013F
:100A7000E458FF4F20831B85612F0E94AF04E12FB4
:100A8000F0E0A4E0F595E795AA95E1F7EA5EFE4F60
:100A90002081FE01E358FF4F20831F70E12FF0E01B
:100AA000EA5EFE4F2081FE01E258FF4F20831C8545
:100AB000612F0E94AF04E12FF0E0B4E0F595E795D7
:100AC000BA95E1F7EA5EFE4F2081FE01E158FF4F43
:100AD00020831F70E12FF0E0EA5EFE4F2081FE01CF
:100AE000E058FF4F20831D85612F0E94AF04E12F46
:100AF000F0E024E0F595E7952A95E1F7EA5EFE4FF0
:100B00002081FE01EF57FF4F20831F70E12FF0E09F
:100B1000EA5EFE4F2081FE01EE57FF4F2083650104
:100B2000470110E0A00EB11EF2E08F0E911CCA1416
:100B3000DB04E9F0F60161906F01662D0E94AF04BD
:100B4000E62DF0E054E0F595E7955A95E1F7EA5E79
:100B5000FE4F2081F4012087F6013197E081EF708C
:100B6000F0E0EA5EFE4F2081F4012187DDCF98019D
:100B70002B5F3F4F220F331F80959095D701A20F17
:100B8000B31FFC0154E0F695E7955A95E1F7EF7035
:100B9000FF27EA5EFE4F30813C93F801EE0FFF1F06
:100BA000BF016E0D7F1DAC014F7055274A5E5E4F31
:100BB000FA013081FB0133870A5F1F4F000F111FBD
:100BC0000E0D1F1DFC01EF2FFF27E295EF70EA5E6F
:100BD000FE4F3081F8013083E92FFF27EF70FF27A8
:100BE000EA5EFE4F808113968C93FE01E150FF4F29
:100BF000245F20838A819B81039709F4DCCEE1592D
:100C0000F109108231961082319610826F8D81E049
:100C100068278D8D0E949D0183E090E09B838A83ED
:100C2000CACEEF92FF921F93CF93DF93FC012281F4
:100C300033812330310509F452C0EC018281938164
:100C4000049761F0678D858D0E949D0160E08C8D19
:100C50000E949D0184E090E09B838A8388A1882381
:100C6000E9F010E08FEF9FEF7E01FDE6EF0EF11C43
:100C7000F7012081121740F4FE01E10FF11D61A57B
:100C80000E94AF041F5FF4CF883B904F71F08889BA
:100C900099890196998B888B19A218A289A1DF9155
:100CA000CF911F91FF90EF9008958AA58E838BA519
:100CB0008F838CA588878DA589878D81811107C039
:100CC0009E818C81981719F08E818F3F31F78A8928
:100CD0009B8901969B8B8A8B81E089A3DECF80E084
:100CE000DECF0E940D11FB0101900020E9F7319742
:100CF000AF01461B570BDC01ED91FC910280F381A3
:100D0000E02D09948F929F92AF92BF920F931F9301
:100D1000CF93DF93CDB7DEB7A1970FB6F894DEBFC0
:100D20000FBECDBF19A2423008F44AE08E010F5D1C
:100D30001F4F842E912CB12CA12CA50194010E944F
:100D4000B10FE62FB901CA01EA3004F5E05DD80120
:100D5000EE938D01232B242B252B79F790E080E057
:100D6000109729F0BD018AE094E00E947306A196D5
:100D70000FB6F894DEBF0FBECDBFDF91CF911F91AC
:100D80000F91BF90AF909F908F900895E95CDFCF57
:100D9000CF93DF93682F70E090E080E04AE00E94FC
:100DA0008206EC0164EA71E08AE094E00E94730636
:100DB0008C0F9D1FDF91CF9108950C948410DF92CA
:100DC000EF92FF920F931F93CF93DF93EC017B0180
:100DD0008A01E881F9810680F781E02D0995D82EF6
:100DE0008823D1F0E114F104B1F00115110599F057
:100DF000FE01E359FF4F80818750F80190818917E8
:100E000008F48083F801408150E0BE01625D7F4FAD
:100E1000C7010E94121119A28D2DDF91CF911F9150
:100E20000F91FF90EF90DF9008954F925F926F9235
:100E30007F92AF92BF92CF92DF92EF92FF921F9379
:100E4000CF93DF9300D0CDB7DEB77C019093DF0165
:100E50008093DE0161E0FC01848D0E94CB0160E0A3
:100E6000F701838D0E94CB0161E0F701858D0E941F
:100E7000CB01C7010E944903F701C18CD28CC11478
:100E8000D10409F444C0F12CE12C83E0CC0CDD1C2E
:100E9000EE1CFF1C8A95D1F79AE6A92E90E0B92E98
:100EA00011E0412C24E2522E24EF622E712C42E0FC
:100EB00050E0B501CE0101960E94580F29813A8178
:100EC00050E040E0C301B2010E94B10FCA01B90174
:100ED000A70196010E94B10FDA01C9010297A10989
:100EE000B1098D3F9F4FA105B10510F11F5F62E071
:100EF000A60EB11C1730D9F6223031054105510537
:100F000030F02115310581E04807510598F081E066
:100F10000F900F90DF91CF911F91FF90EF90DF9096
:100F2000CF90BF90AF907F906F905F904F9008955B
:100F3000163069F31092800088E0809381008091E0
:100F40008100182B10938100309389002093880032
:100F500080916F00826080936F00D9CF0F931F93B1
:100F6000CF93FC018281938140E054E264EF70E012
:100F700084309105C1F040E052E16AE770E08330CF
:100F8000910589F040E059E06DE370E08230910511
:100F900051F040E452E46FE070E0019721F440E842
:100FA00054E86EE170E0A481B58186819781009755
:100FB00009F466C08130910509F45EC08230910564
:100FC00009F45CC0039709F05BC08CE000E012E11B
:100FD0002AE730E090E0401751076207730740F4BA
:100FE00036952795179507959F5F9630A1F797E05F
:100FF00021E0292730E5119709F430E72695282BC1
:10100000232B2087909591709187CFB7F89480918A
:10101000DA01811127C0E2EBF0E08491E6ECF0E028
:101020009491E82FF0E0EE0FFF1FEA58FF4FA591D3
:10103000B491EC91E92321F461E08AE00E949D01E2
:1010400061E08AE00E94CB018CB580618CBD8CB5DB
:1010500080648CBD61E08DE00E94CB0161E08BE09B
:101060000E94CB018091DA018F5F8093DA01CFBFBC
:10107000CF911F910F91089584E0A8CF88E0A6CF6B
:1010800080E0A4CF8F929F92AF92BF92CF92DF92D7
:10109000EF92FF92CF93DF93FC012789308D232BB2
:1010A000B9F1EC010E9454024B015C0189E0C82EA9
:1010B000D12CE12CF12CE881F981008CF18DE02D0F
:1010C000CE010995882321F10E945402AB01BC0195
:1010D000481959096A097B098F89988DB0E0A0E009
:1010E00084179507A607B707F8F00E94E20EA7013C
:1010F00096010E947F0F9B01AC012F5F3F4F4F4F26
:101100005F4FA4E6B0E00E949E0F0E942102D3CF61
:1011100081E0DF91CF91FF90EF90DF90CF90BF9073
:10112000AF909F908F90089580E0F3CFFF920F9340
:101130001F93CF93DF93EC01F62E08811981C8012C
:101140000E94690FF81621F06F2DC8010E94710FDF
:10115000CE01DF91CF911F910F91FF9008951F92C3
:101160000F920FB60F9211242F933F938F939F935B
:10117000AF93BF9380915B0290915C02A0915D025E
:10118000B0915E0230915A0223E0230F2D3758F5BB
:101190000196A11DB11D20935A0280935B0290938A
:1011A0005C02A0935D02B0935E0280915F02909119
:1011B0006002A0916102B09162020196A11DB11D71
:1011C00080935F0290936002A0936102B0936202E9
:1011D000BF91AF919F918F913F912F910F900FBE33
:1011E0000F901F90189526E8230F0296A11DB11DA0
:1011F000D2CF1F920F920FB60F9211242F933F93CD
:101200004F935F936F937F938F939F93AF93BF930E
:10121000EF93FF93E0910201F09103010995FF9193
:10122000EF91BF91AF919F918F917F916F915F915E
:101230004F913F912F910F900FBE0F901F901895D7
:101240001F920F920FB60F9211242F933F934F933B
:101250005F936F937F938F939F93AF93BF93EF931E
:10126000FF93E0910001F09101010995FF91EF9149
:10127000BF91AF919F918F917F916F915F914F91AE
:101280003F912F910F900FBE0F901F9018951F92B6
:101290000F920FB60F9211242F933F934F935F93AA
:1012A0006F937F938F939F93AF93BF93EF93FF932E
:1012B00083E692E00E94D100FF91EF91BF91AF9140
:1012C0009F918F917F916F915F914F913F912F915E
:1012D0000F900FBE0F901F9018951F920F920FB690
:1012E0000F9211242F938F939F93EF93FF93E0918D
:1012F0007302F09174028081E0917902F0917A0298
:1013000082FD1BC0908180917C028F5F8F73209142
:101310007D02821741F0E0917C02F0E0ED59FD4F33
:10132000958F80937C02FF91EF919F918F912F91E8
:101330000F900FBE0F901F9018958081F4CF1F92D1
:101340000F920FB60F9211242F933F934F935F93F9
:101350006F937F938F939F93AF93BF93EF93FF937D
:10136000E0912202F0912302309749F0A685B785DB
:101370008585968D91FF14C09C918923A1F4FF91DE
:10138000EF91BF91AF919F918F917F916F915F91FD
:101390004F913F912F910F900FBE0F901F90189576
:1013A0009C91892361F7A389B4899C918589809553
:1013B00089238C93868997890197F1F7608D718DC8
:1013C000A685B785558538E020E0CB010197F1F778
:1013D000822F90E095958795282F4C91452309F011
:1013E0002068315091F7868D81FD209580912102F2
:1013F00090E001968F73992730912002381799F069
:10140000A0912102B0E0A052BE4F2C938093210204
:10141000828D938D0197F1F7A389B4898C91958979
:10142000892B8C93ACCF868D8160868FF1CF1F92F4
:101430000F920FB60F921124CF92DF92EF92FF928C
:101440000F931F932F933F934F935F936F937F93CC
:101450008F939F93AF93BF93CF93DF93EF93FF93BC
:10146000C091DE01D091DF018A819B81049709F050
:10147000E1C02B8D30E0F901E058FF4F8491F90174
:10148000E454FF4F0491F901E855FF4F14911123E3
:1014900079F081110E947401E12FF0E0EE0FFF1F3F
:1014A000EC56FF4FA591B491EC910E2381E009F425
:1014B00080E081702E8D982F9227821719F08BA1D2
:1014C0008F5F8BA38AA18917F1F18CA12DE1803563
:1014D00008F42BE08CA1820F8CA39AA38CA1803AF4
:1014E00008F46DC08EA19FA1969587959FA38EA3AA
:1014F0008BA1853028F08EA19FA198609FA38EA319
:101500008CA1805A8CA31BA28DA1882309F486C0CC
:1015100088A58F5F88A78C3008F451C08EA19FA149
:10152000982F9F73892F86958695887028E0280FBD
:10153000281769F0E82FF0E0EA5EFE4F308193173C
:1015400039F08F5FF5CF8CA18C5E8CA3C7CF80E084
:1015500090E1899F900111248EA19FA136E096957C
:1015600087953A95E1F7482F9595879595958795B5
:10157000887098E0980F891749F0E82FF0E0EA5E4C
:10158000FE4F5081451719F08F5FF5CF80E0822B19
:10159000DE01A359BF4F9C91AE0144595F4F911199
:1015A00027C0FA0180839081973018F0908194349D
:1015B000F8F01DA2888999890196998B888BFF91F3
:1015C000EF91DF91CF91BF91AF919F918F917F91DB
:1015D0006F915F914F913F912F911F910F91FF90CC
:1015E000EF90DF90CF900F900FBE0F901F90189547
:1015F0002C9191E0920F9C932C0F3D2F311DF901FE
:1016000081A79C91DA018C91981730F01DA281E09E
:1016100088A3CE010E94490318A6D1CF8EA19FA115
:1016200088339B4061F681E08DA318A6C359DF4F34
:101630001882C5CF8A819B81039709F68E010059D4
:101640001F4FF801808191E0980F9083811113C0A2
:101650006E01FEE6CF0ED11CD601EC91AF56BF4F06
:101660008C91E81778F0CE010E9449038C899D89FE
:1016700001969D8B8C8BD8018C91883008F49FCF7C
:101680001C929DCFEC0FFD2FF11DEF58FF4F608195
:1016900070E07E01BFE6EB0EF11CF701808191E066
:1016A000980F908302C0759567958A95E2F76170EF
:1016B0008C8D0E949D01D7018C918630E0F21C92A6
:1016C000F60180818F5F8083D6CFCF93DF93CDB734
:1016D000DEB728970FB6F894DEBF0FBECDBF1092CD
:1016E00066021092650288EE93E0A0E0B0E080937D
:1016F000670290936802A0936902B0936A022AE29B
:1017000031E0309364022093630225EC30E03093A3
:10171000700220936F0224EC30E030937202209329
:10172000710220EC30E0309374022093730221ECBC
:1017300030E0309376022093750222EC30E0309353
:1017400078022093770226EC30E030937A022093DF
:10175000790210927C0210927D0210927E02109209
:101760007F0210920303109202031092050310925D
:10177000040310920703109206032CE331E0309328
:1017800001032093000320E520930803109209032E
:1017900010920D0410920C0480930E0490930F0489
:1017A000A0931004B093110486E991E090930B0488
:1017B00080930A04109221041092200410922304B2
:1017C00010922204109225041092240410922704EF
:1017D00010922604609128046E7F6D7F6093280428
:1017E0006695617081E0682788E00E949D0161E054
:1017F00088E00E94CB01E4ECF0E0E491E0931A046D
:10180000E0EBF0E0E491F0E0EE0FFF1FE256FF4F57
:101810008591949190931C0480931B0460E087E071
:101820000E94CB018091280481FD04C061E087E023
:101830000E949D0187E080931604E3ECF0E0E491C0
:10184000E0931704EFEAF0E0E491F0E0EE0FFF1F01
:10185000EC56FF4F8591949190931904809318044E
:1018600010920D0310920C038FEF80930E03809360
:10187000140380931503109216031092170310920D
:101880001B0310921A0310921D0310921C03109256
:101890001F0310921E03109222031092210386E56B
:1018A00091E090930B0380930A0380ED97E090936F
:1018B0002403809323038BE0809325038CE08093A3
:1018C00026038AE0809327031092280310922903AD
:1018D00088E0EEE0F1E0DE01119601900D928A952C
:1018E000E1F788E0FE013196ABE7B3E001900D929D
:1018F0008A95E1F728960FB6F894DEBF0FBECDBFEC
:10190000DF91CF910895CF93DF93CDB7DEB7ED97F9
:101910000FB6F894DEBF0FBECDBF789484B5826059
:1019200084BD84B5816084BD85B5826085BD85B583
:10193000816085BD80916E00816080936E00109201
:10194000810080918100826080938100809181007C
:10195000816080938100809180008160809380000D
:101960008091B10084608093B1008091B00081606B
:101970008093B00080917A00846080937A00809197
:101980007A00826080937A0080917A0081608093EF
:101990007A0080917A00806880937A001092C1006A
:1019A0001092250410922404109223041092220411
:1019B00010922104109220048DE991E09093270465
:1019C0008093260490911604963108F047C02DEBC1
:1019D00030E030932104209320042BE931E0309350
:1019E0002304209322042CE231E030932504209339
:1019F00024042091680084E0983048F031E09E3063
:101A000008F430E081E001C0880F3A95EAF7822BB4
:101A1000809368002DE630E0983050F02BE630E0FF
:101A20009E3030F02CE630E0963110F030E020E0CF
:101A300030931E0420931D04292F30E0983008F0C5
:101A4000BEC081E001C0880F9A95EAF780931F0419
:101A500080912604909127040197F1F78091240446
:101A600090912504892B49F1E0912202F091230203
:101A700084E0EA30F80709F1309739F0A389B48996
:101A80009C918589809589238C93809128048E7FF1
:101A90008093280410922102109220028AE094E0A0
:101AA0009093230280932202E0911D04F0911E0482
:101AB000808190911F04892B80838AE093E00E94AB
:101AC000150790E080E00E94690F833FC9F081E034
:101AD00090E09A83898362E0CE0101960E94960885
:101AE00082E090E09A83898361E0CE0101960E94B2
:101AF00096081A82198263EFCE0101960E94960819
:101B000081E090E00E94690F182F8093250282E007
:101B100090E00E94690F8093240210930E038CE3DF
:101B2000B82E00E010E092E0E92EF12CCC24C39412
:101B3000D12C8AE094E00E940C03892B09F4B2C0F6
:101B40008AE094E00E942203409159028A3019F001
:101B50008D3009F09AC0442361F3E42FF0E0EA5D90
:101B6000FD4F1082809126028F3209F07BC046E043
:101B700050E067EA71E086E292E00E942411892B2E
:101B800059F58CE292E00E943A0F80932502DA82A6
:101B9000C982682FCE0101960E9496088091250285
:101BA00080930E036EEA71E08AE094E00E9473066F
:101BB000809125020E94C80610925902BACF9E3029
:101BC00040F42850310981E001C0880F2A95EAF7D6
:101BD0003DCF2E503109F7CF46E050E067EB71E082
:101BE00086E292E00E942411892BB1F48CE292E00B
:101BF0000E943A0F80932402FA82E982682FCE0174
:101C000001960E9496086EEB71E08AE094E00E94D3
:101C1000730680912402CECF67EC71E086E292E0F9
:101C20000E941B11892B89F461EB71E08AE094E03A
:101C30000E9473066091250270E090E080E04AE027
:101C40000E94820660EC71E0E0CF6DEC71E08AE00A
:101C500094E00E94730664EA71E08AE094E00E94D6
:101C60007306AACF809125028093150380912402E8
:101C70008093140366E272E08AE093E00E94CA0453
:101C80008AE093E00E94360497CF423308F051CFA8
:101C900091E0940F90935902E42FF0E0EA5DFD4F3C
:101CA000808347CFBDAEAE01435C5F4FBE016F5F27
:101CB0007F4F8AE093E00E94DF06882379F04DADE4
:101CC00050E0BE016F5F7F4F8AE094E00E946A029D
:101CD00064EA71E08AE094E00E9473060115110540
:101CE00009F427CF0E946001882309F422CF0E94C3
:101CF00000001FCF86E991E090930B0480930A04C3
:101D000080912202909123028A50944071F4E091D4
:101D10001D04F0911E04908180911F0480958923F9
:101D20008083109223021092220208958F929F9234
:101D3000AF92BF92CF92DF92EF92FF92CF93DF9359
:101D4000EC01688179818A819B816115710581052A
:101D5000910521F464E279ED8BE597E02DE133EF15
:101D600041E050E00E947F0F49015A019B01AC0104
:101D7000A7EAB1E40E949E0F6B017C01ACEEB4EFC8
:101D8000A50194010E94AC0FC60ED71EE81EF91ED5
:101D9000F7FE06C081E0C81AD108E10880E8F80A19
:101DA000C882D982EA82FB82C701B6019F77DF91A0
:101DB000CF91FF90EF90DF90CF90BF90AF909F902A
:101DC0008F9008958F929F92AF92BF92CF92DF92A1
:101DD000EF92FF92609104017091050180910601DC
:101DE00090910701611571058105910521F464E267
:101DF00079ED8BE597E02DE133EF41E050E00E9473
:101E00007F0F49015A019B01AC01A7EAB1E40E948E
:101E10009E0F6B017C01ACEEB4EFA50194010E9412
:101E2000AC0FC60ED71EE81EF91EF7FE06C081E0F5
:101E3000C81AD108E10880E8F80AC0920401D092DB
:101E40000501E0920601F0920701C701B6019F77F4
:101E5000FF90EF90DF90CF90BF90AF909F908F90CA
:101E60000895609304017093050180930601909397
:101E700007010895FC0188279927E89421912032D1
:101E8000E9F3293010F02E30C8F32B3241F02D3217
:101E900039F4689404C00E94610F820F911D219152
:101EA00020532A30C0F31EF4909581959F4F0895DA
:101EB000FB01DC0102C005900D9241505040D8F763
:101EC00008957AE0979F902D879F802D910D112482
:101ED0000895F999FECF92BD81BDF89A992780B5F2
:101EE0000895262FF999FECF1FBA92BD81BD20BD5E
:101EF0000FB6F894FA9AF99A0FBE01960895052E36
:101F000097FB1EF400940E94960F57FD07D00E9485
:101F1000B10F07FC03D04EF40C94960F50954095EA
:101F2000309521953F4F4F4F5F4F08959095809585
:101F3000709561957F4F8F4F9F4F08950E94D30FEB
:101F4000A59F900DB49F900DA49F800D911D11240D
:101F50000895B7FF0C949E0F0E949E0F821B930B57
:101F60000895A1E21A2EAA1BBB1BFD010DC0AA1FDA
:101F7000BB1FEE1FFF1FA217B307E407F50720F0F2
:101F8000A21BB30BE40BF50B661F771F881F991F6D
:101F90001A9469F760957095809590959B01AC01B6
:101FA000BD01CF010895A29FB001B39FC001A39FBF
:101FB000700D811D1124911DB29F700D811D112482
:101FC000911D0895EE0FFF1F0590F491E02D0994E7
:101FD0000F931F93CF93DF938230910510F482E02B
:101FE00090E0E0912B04F0912C0430E020E0B0E090
:101FF000A0E0309799F42115310509F44AC0281B57
:10200000390B24303105D8F58A819B816115710522
:1020100089F1FB0193838283FE0111C040815181CC
:102020000281138148175907E0F04817590799F4BE
:10203000109761F012960C93129713961C93329698
:10204000CF01DF91CF911F910F91089500932B0441
:1020500010932C04F4CF2115310551F0421753078A
:1020600038F0A901DB019A01BD01DF01F801C1CF00
:10207000EF01F9CF90932C0480932B04CDCFFE0178
:10208000E20FF31F81939193225031093983288302
:10209000D7CF2091290430912A04232B41F4209199
:1020A0000A0130910B0130932A04209329042091D6
:1020B0000801309109012115310541F42DB73EB7D2
:1020C00040910C0150910D01241B350BE091290426
:1020D000F0912A04E217F307A0F42E1B3F0B2817F8
:1020E000390778F0AC014E5F5F4F2417350748F091
:1020F0004E0F5F1F50932A044093290481939193BC
:102100009FCFF0E0E0E09CCFCF93DF930097E9F022
:10211000FC01329713821282A0912B04B0912C04FF
:10212000ED0130E020E01097A1F420813181820F91
:10213000931F2091290430912A042817390709F0A8
:1021400061C0F0932A04E0932904DF91CF910895B0
:10215000EA01CE17DF07E8F54A815B819E01411550
:102160005105B1F7E901FB83EA8349915991C40F05
:10217000D51FEC17FD0761F4808191810296840FD1
:10218000951FE90199838883828193819B838A8348
:10219000F0E0E0E012968D919C9113970097B9F5CD
:1021A0002D913C911197CD010296820F931F2091A2
:1021B000290430912A042817390739F6309751F548
:1021C00010922C0410922B04B0932A04A09329049B
:1021D000BCCFD383C28340815181840F951FC81720
:1021E000D90761F44E5F5F4F88819981480F591F6D
:1021F000518340838A819B8193838283211531059A
:1022000009F0B0CFF0932C04E0932B049ECFFD0196
:10221000DC01C0CF13821282D7CF81E090E0F89426
:102220000C943211FB01DC0102C001900D9241506F
:102230005040D8F70895FB01DC018D910190801981
:102240000110D9F3990B0895FB01DC014150504076
:1022500030F08D910190801919F40020B9F7881B96
:10226000990B089510E0C9E6D0E004C0FE010E9479
:0E227000E20F2196CA36D107C9F7F894FFCFC6
:10227E00690269020100000000002D0480002A2A74
:10228E002A2A2A2A382C0D0E131516191A1C232544
:10229E0026292A2C323400000000F3006A02940032
:1022AE004001C500A300B70000000000BF03AF024D
:1022BE00AF02AE07AB03CE03CA03C6038E037D0384
:1022CE006303000000004603DD0615071106DF0656
:1022DE00CA0447038804360407043E044208E00398
:1022EE006602600263020104FA030404F703F403B6
:1022FE00F103EE03EA03E603E203E003DC03D80393
:10230E00D40300000000B0026A024303AF020C03C4
:10231E00220397020D0A002F6164647220006F6B16
:10232E0020616464723D002F7065657220006F6BD2
:10233E0020706565723D002F73686F77006572724D
:0A234E0020756E6B6E6F776E000055
:00000001FF
